{
    "contractName": "Characters",
    "abi": [
        {
            "inputs": [],
            "stateMutability": "nonpayable",
            "type": "constructor"
        },
        {
            "inputs": [],
            "name": "AlreadyEquipped",
            "type": "error"
        },
        {
            "inputs": [],
            "name": "ApprovalCallerNotOwnerNorApproved",
            "type": "error"
        },
        {
            "inputs": [],
            "name": "ApprovalQueryForNonexistentToken",
            "type": "error"
        },
        {
            "inputs": [],
            "name": "ApprovalToCurrentOwner",
            "type": "error"
        },
        {
            "inputs": [],
            "name": "ApproveToCaller",
            "type": "error"
        },
        {
            "inputs": [],
            "name": "BalanceQueryForZeroAddress",
            "type": "error"
        },
        {
            "inputs": [],
            "name": "CannotRemoveMasterOperator",
            "type": "error"
        },
        {
            "inputs": [],
            "name": "InsufficientAmount",
            "type": "error"
        },
        {
            "inputs": [],
            "name": "InsufficientPrivileges",
            "type": "error"
        },
        {
            "inputs": [],
            "name": "InvalidQueryRange",
            "type": "error"
        },
        {
            "inputs": [],
            "name": "MintToZeroAddress",
            "type": "error"
        },
        {
            "inputs": [],
            "name": "MintZeroQuantity",
            "type": "error"
        },
        {
            "inputs": [],
            "name": "NotMasterOperator",
            "type": "error"
        },
        {
            "inputs": [],
            "name": "NotOperator",
            "type": "error"
        },
        {
            "inputs": [],
            "name": "NotOwner",
            "type": "error"
        },
        {
            "inputs": [],
            "name": "NotOwnerOfEquipment",
            "type": "error"
        },
        {
            "inputs": [],
            "name": "OwnerQueryForNonexistentToken",
            "type": "error"
        },
        {
            "inputs": [],
            "name": "TransferCallerNotOwnerNorApproved",
            "type": "error"
        },
        {
            "inputs": [],
            "name": "TransferFromIncorrectOwner",
            "type": "error"
        },
        {
            "inputs": [],
            "name": "TransferToNonERC721ReceiverImplementer",
            "type": "error"
        },
        {
            "inputs": [],
            "name": "TransferToZeroAddress",
            "type": "error"
        },
        {
            "inputs": [],
            "name": "URIQueryForNonexistentToken",
            "type": "error"
        },
        {
            "anonymous": false,
            "inputs": [
                {
                    "indexed": true,
                    "internalType": "address",
                    "name": "owner",
                    "type": "address"
                },
                {
                    "indexed": true,
                    "internalType": "address",
                    "name": "approved",
                    "type": "address"
                },
                {
                    "indexed": true,
                    "internalType": "uint256",
                    "name": "tokenId",
                    "type": "uint256"
                }
            ],
            "name": "Approval",
            "type": "event"
        },
        {
            "anonymous": false,
            "inputs": [
                {
                    "indexed": true,
                    "internalType": "address",
                    "name": "owner",
                    "type": "address"
                },
                {
                    "indexed": true,
                    "internalType": "address",
                    "name": "operator",
                    "type": "address"
                },
                {
                    "indexed": false,
                    "internalType": "bool",
                    "name": "approved",
                    "type": "bool"
                }
            ],
            "name": "ApprovalForAll",
            "type": "event"
        },
        {
            "anonymous": false,
            "inputs": [
                {
                    "indexed": true,
                    "internalType": "address",
                    "name": "owner",
                    "type": "address"
                },
                {
                    "indexed": true,
                    "internalType": "uint256",
                    "name": "id",
                    "type": "uint256"
                }
            ],
            "name": "CharacterBurned",
            "type": "event"
        },
        {
            "anonymous": false,
            "inputs": [
                {
                    "indexed": true,
                    "internalType": "address",
                    "name": "owner",
                    "type": "address"
                },
                {
                    "indexed": true,
                    "internalType": "uint256",
                    "name": "id",
                    "type": "uint256"
                }
            ],
            "name": "CharacterCreated",
            "type": "event"
        },
        {
            "anonymous": false,
            "inputs": [
                {
                    "indexed": true,
                    "internalType": "address",
                    "name": "operator",
                    "type": "address"
                }
            ],
            "name": "MasterOperatorChanged",
            "type": "event"
        },
        {
            "anonymous": false,
            "inputs": [
                {
                    "indexed": true,
                    "internalType": "address",
                    "name": "operator",
                    "type": "address"
                }
            ],
            "name": "OperatorAdded",
            "type": "event"
        },
        {
            "anonymous": false,
            "inputs": [
                {
                    "indexed": true,
                    "internalType": "address",
                    "name": "operator",
                    "type": "address"
                }
            ],
            "name": "OperatorRemoved",
            "type": "event"
        },
        {
            "anonymous": false,
            "inputs": [
                {
                    "indexed": true,
                    "internalType": "address",
                    "name": "from",
                    "type": "address"
                },
                {
                    "indexed": true,
                    "internalType": "address",
                    "name": "to",
                    "type": "address"
                },
                {
                    "indexed": true,
                    "internalType": "uint256",
                    "name": "tokenId",
                    "type": "uint256"
                }
            ],
            "name": "Transfer",
            "type": "event"
        },
        {
            "inputs": [
                {
                    "internalType": "address",
                    "name": "operator",
                    "type": "address"
                }
            ],
            "name": "addOperator",
            "outputs": [],
            "stateMutability": "nonpayable",
            "type": "function"
        },
        {
            "inputs": [
                {
                    "internalType": "address",
                    "name": "to",
                    "type": "address"
                },
                {
                    "internalType": "uint256",
                    "name": "tokenId",
                    "type": "uint256"
                }
            ],
            "name": "approve",
            "outputs": [],
            "stateMutability": "nonpayable",
            "type": "function"
        },
        {
            "inputs": [
                {
                    "internalType": "address",
                    "name": "owner",
                    "type": "address"
                }
            ],
            "name": "balanceOf",
            "outputs": [
                {
                    "internalType": "uint256",
                    "name": "",
                    "type": "uint256"
                }
            ],
            "stateMutability": "view",
            "type": "function"
        },
        {
            "inputs": [
                {
                    "internalType": "uint256",
                    "name": "id",
                    "type": "uint256"
                }
            ],
            "name": "burnCharacter",
            "outputs": [],
            "stateMutability": "nonpayable",
            "type": "function"
        },
        {
            "inputs": [
                {
                    "internalType": "uint256",
                    "name": "",
                    "type": "uint256"
                }
            ],
            "name": "characters",
            "outputs": [
                {
                    "internalType": "address",
                    "name": "owner",
                    "type": "address"
                },
                {
                    "internalType": "string",
                    "name": "name",
                    "type": "string"
                },
                {
                    "internalType": "uint256",
                    "name": "id",
                    "type": "uint256"
                },
                {
                    "internalType": "uint32",
                    "name": "level",
                    "type": "uint32"
                },
                {
                    "internalType": "uint32",
                    "name": "exp",
                    "type": "uint32"
                },
                {
                    "internalType": "uint32",
                    "name": "hp",
                    "type": "uint32"
                },
                {
                    "internalType": "uint32",
                    "name": "str",
                    "type": "uint32"
                },
                {
                    "internalType": "uint32",
                    "name": "def",
                    "type": "uint32"
                },
                {
                    "internalType": "uint32",
                    "name": "dex",
                    "type": "uint32"
                },
                {
                    "internalType": "uint32",
                    "name": "agi",
                    "type": "uint32"
                },
                {
                    "components": [
                        {
                            "internalType": "uint256",
                            "name": "hp",
                            "type": "uint256"
                        },
                        {
                            "internalType": "uint256",
                            "name": "str",
                            "type": "uint256"
                        },
                        {
                            "internalType": "uint256",
                            "name": "def",
                            "type": "uint256"
                        },
                        {
                            "internalType": "uint256",
                            "name": "agi",
                            "type": "uint256"
                        },
                        {
                            "internalType": "uint256",
                            "name": "dex",
                            "type": "uint256"
                        }
                    ],
                    "internalType": "struct CharacterSeed",
                    "name": "seeds",
                    "type": "tuple"
                }
            ],
            "stateMutability": "view",
            "type": "function"
        },
        {
            "inputs": [
                {
                    "internalType": "uint256",
                    "name": "characterId",
                    "type": "uint256"
                },
                {
                    "internalType": "uint256",
                    "name": "equipmentId",
                    "type": "uint256"
                }
            ],
            "name": "equipItem",
            "outputs": [],
            "stateMutability": "nonpayable",
            "type": "function"
        },
        {
            "inputs": [
                {
                    "internalType": "uint256",
                    "name": "tokenId",
                    "type": "uint256"
                }
            ],
            "name": "explicitOwnershipOf",
            "outputs": [
                {
                    "components": [
                        {
                            "internalType": "address",
                            "name": "addr",
                            "type": "address"
                        },
                        {
                            "internalType": "uint64",
                            "name": "startTimestamp",
                            "type": "uint64"
                        },
                        {
                            "internalType": "bool",
                            "name": "burned",
                            "type": "bool"
                        }
                    ],
                    "internalType": "struct IERC721A.TokenOwnership",
                    "name": "",
                    "type": "tuple"
                }
            ],
            "stateMutability": "view",
            "type": "function"
        },
        {
            "inputs": [
                {
                    "internalType": "uint256[]",
                    "name": "tokenIds",
                    "type": "uint256[]"
                }
            ],
            "name": "explicitOwnershipsOf",
            "outputs": [
                {
                    "components": [
                        {
                            "internalType": "address",
                            "name": "addr",
                            "type": "address"
                        },
                        {
                            "internalType": "uint64",
                            "name": "startTimestamp",
                            "type": "uint64"
                        },
                        {
                            "internalType": "bool",
                            "name": "burned",
                            "type": "bool"
                        }
                    ],
                    "internalType": "struct IERC721A.TokenOwnership[]",
                    "name": "",
                    "type": "tuple[]"
                }
            ],
            "stateMutability": "view",
            "type": "function"
        },
        {
            "inputs": [
                {
                    "internalType": "uint256",
                    "name": "id",
                    "type": "uint256"
                },
                {
                    "internalType": "uint32",
                    "name": "amount",
                    "type": "uint32"
                }
            ],
            "name": "gainExperience",
            "outputs": [],
            "stateMutability": "nonpayable",
            "type": "function"
        },
        {
            "inputs": [
                {
                    "internalType": "uint256",
                    "name": "tokenId",
                    "type": "uint256"
                }
            ],
            "name": "getApproved",
            "outputs": [
                {
                    "internalType": "address",
                    "name": "",
                    "type": "address"
                }
            ],
            "stateMutability": "view",
            "type": "function"
        },
        {
            "inputs": [
                {
                    "internalType": "uint256",
                    "name": "id",
                    "type": "uint256"
                }
            ],
            "name": "getCharacter",
            "outputs": [
                {
                    "components": [
                        {
                            "internalType": "address",
                            "name": "owner",
                            "type": "address"
                        },
                        {
                            "internalType": "string",
                            "name": "name",
                            "type": "string"
                        },
                        {
                            "internalType": "uint256",
                            "name": "id",
                            "type": "uint256"
                        },
                        {
                            "internalType": "uint32",
                            "name": "level",
                            "type": "uint32"
                        },
                        {
                            "internalType": "uint32",
                            "name": "exp",
                            "type": "uint32"
                        },
                        {
                            "internalType": "uint32",
                            "name": "hp",
                            "type": "uint32"
                        },
                        {
                            "internalType": "uint32",
                            "name": "str",
                            "type": "uint32"
                        },
                        {
                            "internalType": "uint32",
                            "name": "def",
                            "type": "uint32"
                        },
                        {
                            "internalType": "uint32",
                            "name": "dex",
                            "type": "uint32"
                        },
                        {
                            "internalType": "uint32",
                            "name": "agi",
                            "type": "uint32"
                        },
                        {
                            "components": [
                                {
                                    "internalType": "uint256",
                                    "name": "hp",
                                    "type": "uint256"
                                },
                                {
                                    "internalType": "uint256",
                                    "name": "str",
                                    "type": "uint256"
                                },
                                {
                                    "internalType": "uint256",
                                    "name": "def",
                                    "type": "uint256"
                                },
                                {
                                    "internalType": "uint256",
                                    "name": "agi",
                                    "type": "uint256"
                                },
                                {
                                    "internalType": "uint256",
                                    "name": "dex",
                                    "type": "uint256"
                                }
                            ],
                            "internalType": "struct CharacterSeed",
                            "name": "seeds",
                            "type": "tuple"
                        }
                    ],
                    "internalType": "struct Character",
                    "name": "",
                    "type": "tuple"
                }
            ],
            "stateMutability": "view",
            "type": "function"
        },
        {
            "inputs": [
                {
                    "internalType": "uint256",
                    "name": "id",
                    "type": "uint256"
                }
            ],
            "name": "getCharacterEquipment",
            "outputs": [
                {
                    "components": [
                        {
                            "internalType": "string",
                            "name": "name",
                            "type": "string"
                        },
                        {
                            "internalType": "uint256",
                            "name": "id",
                            "type": "uint256"
                        },
                        {
                            "internalType": "uint32",
                            "name": "hp",
                            "type": "uint32"
                        },
                        {
                            "internalType": "uint32",
                            "name": "str",
                            "type": "uint32"
                        },
                        {
                            "internalType": "uint32",
                            "name": "dex",
                            "type": "uint32"
                        },
                        {
                            "internalType": "uint32",
                            "name": "def",
                            "type": "uint32"
                        },
                        {
                            "internalType": "uint32",
                            "name": "agi",
                            "type": "uint32"
                        },
                        {
                            "internalType": "uint32",
                            "name": "slot",
                            "type": "uint32"
                        },
                        {
                            "internalType": "bool",
                            "name": "equipped",
                            "type": "bool"
                        }
                    ],
                    "internalType": "struct Equip[]",
                    "name": "equips",
                    "type": "tuple[]"
                }
            ],
            "stateMutability": "view",
            "type": "function"
        },
        {
            "inputs": [
                {
                    "internalType": "address",
                    "name": "owner",
                    "type": "address"
                }
            ],
            "name": "getCharactersAndEquipOfOwner",
            "outputs": [
                {
                    "components": [
                        {
                            "internalType": "address",
                            "name": "owner",
                            "type": "address"
                        },
                        {
                            "internalType": "string",
                            "name": "name",
                            "type": "string"
                        },
                        {
                            "internalType": "uint256",
                            "name": "id",
                            "type": "uint256"
                        },
                        {
                            "internalType": "uint32",
                            "name": "level",
                            "type": "uint32"
                        },
                        {
                            "internalType": "uint32",
                            "name": "exp",
                            "type": "uint32"
                        },
                        {
                            "internalType": "uint32",
                            "name": "hp",
                            "type": "uint32"
                        },
                        {
                            "internalType": "uint32",
                            "name": "str",
                            "type": "uint32"
                        },
                        {
                            "internalType": "uint32",
                            "name": "def",
                            "type": "uint32"
                        },
                        {
                            "internalType": "uint32",
                            "name": "dex",
                            "type": "uint32"
                        },
                        {
                            "internalType": "uint32",
                            "name": "agi",
                            "type": "uint32"
                        },
                        {
                            "components": [
                                {
                                    "internalType": "uint256",
                                    "name": "hp",
                                    "type": "uint256"
                                },
                                {
                                    "internalType": "uint256",
                                    "name": "str",
                                    "type": "uint256"
                                },
                                {
                                    "internalType": "uint256",
                                    "name": "def",
                                    "type": "uint256"
                                },
                                {
                                    "internalType": "uint256",
                                    "name": "agi",
                                    "type": "uint256"
                                },
                                {
                                    "internalType": "uint256",
                                    "name": "dex",
                                    "type": "uint256"
                                }
                            ],
                            "internalType": "struct CharacterSeed",
                            "name": "seeds",
                            "type": "tuple"
                        }
                    ],
                    "internalType": "struct Character[]",
                    "name": "chars",
                    "type": "tuple[]"
                },
                {
                    "components": [
                        {
                            "internalType": "string",
                            "name": "name",
                            "type": "string"
                        },
                        {
                            "internalType": "uint256",
                            "name": "id",
                            "type": "uint256"
                        },
                        {
                            "internalType": "uint32",
                            "name": "hp",
                            "type": "uint32"
                        },
                        {
                            "internalType": "uint32",
                            "name": "str",
                            "type": "uint32"
                        },
                        {
                            "internalType": "uint32",
                            "name": "dex",
                            "type": "uint32"
                        },
                        {
                            "internalType": "uint32",
                            "name": "def",
                            "type": "uint32"
                        },
                        {
                            "internalType": "uint32",
                            "name": "agi",
                            "type": "uint32"
                        },
                        {
                            "internalType": "uint32",
                            "name": "slot",
                            "type": "uint32"
                        },
                        {
                            "internalType": "bool",
                            "name": "equipped",
                            "type": "bool"
                        }
                    ],
                    "internalType": "struct Equip[]",
                    "name": "equips",
                    "type": "tuple[]"
                }
            ],
            "stateMutability": "view",
            "type": "function"
        },
        {
            "inputs": [
                {
                    "internalType": "address",
                    "name": "owner",
                    "type": "address"
                }
            ],
            "name": "getCharactersOfOwner",
            "outputs": [
                {
                    "components": [
                        {
                            "internalType": "address",
                            "name": "owner",
                            "type": "address"
                        },
                        {
                            "internalType": "string",
                            "name": "name",
                            "type": "string"
                        },
                        {
                            "internalType": "uint256",
                            "name": "id",
                            "type": "uint256"
                        },
                        {
                            "internalType": "uint32",
                            "name": "level",
                            "type": "uint32"
                        },
                        {
                            "internalType": "uint32",
                            "name": "exp",
                            "type": "uint32"
                        },
                        {
                            "internalType": "uint32",
                            "name": "hp",
                            "type": "uint32"
                        },
                        {
                            "internalType": "uint32",
                            "name": "str",
                            "type": "uint32"
                        },
                        {
                            "internalType": "uint32",
                            "name": "def",
                            "type": "uint32"
                        },
                        {
                            "internalType": "uint32",
                            "name": "dex",
                            "type": "uint32"
                        },
                        {
                            "internalType": "uint32",
                            "name": "agi",
                            "type": "uint32"
                        },
                        {
                            "components": [
                                {
                                    "internalType": "uint256",
                                    "name": "hp",
                                    "type": "uint256"
                                },
                                {
                                    "internalType": "uint256",
                                    "name": "str",
                                    "type": "uint256"
                                },
                                {
                                    "internalType": "uint256",
                                    "name": "def",
                                    "type": "uint256"
                                },
                                {
                                    "internalType": "uint256",
                                    "name": "agi",
                                    "type": "uint256"
                                },
                                {
                                    "internalType": "uint256",
                                    "name": "dex",
                                    "type": "uint256"
                                }
                            ],
                            "internalType": "struct CharacterSeed",
                            "name": "seeds",
                            "type": "tuple"
                        }
                    ],
                    "internalType": "struct Character[]",
                    "name": "",
                    "type": "tuple[]"
                }
            ],
            "stateMutability": "view",
            "type": "function"
        },
        {
            "inputs": [],
            "name": "index",
            "outputs": [
                {
                    "internalType": "uint256",
                    "name": "",
                    "type": "uint256"
                }
            ],
            "stateMutability": "view",
            "type": "function"
        },
        {
            "inputs": [
                {
                    "internalType": "address",
                    "name": "_equipment",
                    "type": "address"
                }
            ],
            "name": "initialize",
            "outputs": [],
            "stateMutability": "nonpayable",
            "type": "function"
        },
        {
            "inputs": [
                {
                    "internalType": "address",
                    "name": "owner",
                    "type": "address"
                },
                {
                    "internalType": "address",
                    "name": "operator",
                    "type": "address"
                }
            ],
            "name": "isApprovedForAll",
            "outputs": [
                {
                    "internalType": "bool",
                    "name": "",
                    "type": "bool"
                }
            ],
            "stateMutability": "view",
            "type": "function"
        },
        {
            "inputs": [],
            "name": "masterOperator",
            "outputs": [
                {
                    "internalType": "address",
                    "name": "",
                    "type": "address"
                }
            ],
            "stateMutability": "view",
            "type": "function"
        },
        {
            "inputs": [
                {
                    "internalType": "string",
                    "name": "name",
                    "type": "string"
                }
            ],
            "name": "mintCharacter",
            "outputs": [],
            "stateMutability": "payable",
            "type": "function"
        },
        {
            "inputs": [],
            "name": "name",
            "outputs": [
                {
                    "internalType": "string",
                    "name": "",
                    "type": "string"
                }
            ],
            "stateMutability": "view",
            "type": "function"
        },
        {
            "inputs": [
                {
                    "internalType": "address",
                    "name": "",
                    "type": "address"
                }
            ],
            "name": "operators",
            "outputs": [
                {
                    "internalType": "bool",
                    "name": "",
                    "type": "bool"
                }
            ],
            "stateMutability": "view",
            "type": "function"
        },
        {
            "inputs": [],
            "name": "operatorsCanWrite",
            "outputs": [
                {
                    "internalType": "bool",
                    "name": "",
                    "type": "bool"
                }
            ],
            "stateMutability": "view",
            "type": "function"
        },
        {
            "inputs": [
                {
                    "internalType": "uint256",
                    "name": "tokenId",
                    "type": "uint256"
                }
            ],
            "name": "ownerOf",
            "outputs": [
                {
                    "internalType": "address",
                    "name": "",
                    "type": "address"
                }
            ],
            "stateMutability": "view",
            "type": "function"
        },
        {
            "inputs": [],
            "name": "price",
            "outputs": [
                {
                    "internalType": "uint256",
                    "name": "",
                    "type": "uint256"
                }
            ],
            "stateMutability": "view",
            "type": "function"
        },
        {
            "inputs": [],
            "name": "relinquishOwnership",
            "outputs": [],
            "stateMutability": "nonpayable",
            "type": "function"
        },
        {
            "inputs": [
                {
                    "internalType": "address",
                    "name": "operator",
                    "type": "address"
                }
            ],
            "name": "removeOperator",
            "outputs": [],
            "stateMutability": "nonpayable",
            "type": "function"
        },
        {
            "inputs": [
                {
                    "internalType": "address",
                    "name": "from",
                    "type": "address"
                },
                {
                    "internalType": "address",
                    "name": "to",
                    "type": "address"
                },
                {
                    "internalType": "uint256",
                    "name": "tokenId",
                    "type": "uint256"
                }
            ],
            "name": "safeTransferFrom",
            "outputs": [],
            "stateMutability": "nonpayable",
            "type": "function"
        },
        {
            "inputs": [
                {
                    "internalType": "address",
                    "name": "from",
                    "type": "address"
                },
                {
                    "internalType": "address",
                    "name": "to",
                    "type": "address"
                },
                {
                    "internalType": "uint256",
                    "name": "tokenId",
                    "type": "uint256"
                },
                {
                    "internalType": "bytes",
                    "name": "_data",
                    "type": "bytes"
                }
            ],
            "name": "safeTransferFrom",
            "outputs": [],
            "stateMutability": "nonpayable",
            "type": "function"
        },
        {
            "inputs": [
                {
                    "internalType": "address",
                    "name": "operator",
                    "type": "address"
                },
                {
                    "internalType": "bool",
                    "name": "approved",
                    "type": "bool"
                }
            ],
            "name": "setApprovalForAll",
            "outputs": [],
            "stateMutability": "nonpayable",
            "type": "function"
        },
        {
            "inputs": [
                {
                    "internalType": "bytes4",
                    "name": "interfaceId",
                    "type": "bytes4"
                }
            ],
            "name": "supportsInterface",
            "outputs": [
                {
                    "internalType": "bool",
                    "name": "",
                    "type": "bool"
                }
            ],
            "stateMutability": "view",
            "type": "function"
        },
        {
            "inputs": [],
            "name": "symbol",
            "outputs": [
                {
                    "internalType": "string",
                    "name": "",
                    "type": "string"
                }
            ],
            "stateMutability": "view",
            "type": "function"
        },
        {
            "inputs": [
                {
                    "internalType": "uint32",
                    "name": "level",
                    "type": "uint32"
                }
            ],
            "name": "toNextLevel",
            "outputs": [
                {
                    "internalType": "uint32",
                    "name": "",
                    "type": "uint32"
                }
            ],
            "stateMutability": "pure",
            "type": "function"
        },
        {
            "inputs": [
                {
                    "internalType": "uint256",
                    "name": "tokenId",
                    "type": "uint256"
                }
            ],
            "name": "tokenURI",
            "outputs": [
                {
                    "internalType": "string",
                    "name": "",
                    "type": "string"
                }
            ],
            "stateMutability": "view",
            "type": "function"
        },
        {
            "inputs": [
                {
                    "internalType": "address",
                    "name": "owner",
                    "type": "address"
                }
            ],
            "name": "tokensOfOwner",
            "outputs": [
                {
                    "internalType": "uint256[]",
                    "name": "",
                    "type": "uint256[]"
                }
            ],
            "stateMutability": "view",
            "type": "function"
        },
        {
            "inputs": [
                {
                    "internalType": "address",
                    "name": "owner",
                    "type": "address"
                },
                {
                    "internalType": "uint256",
                    "name": "start",
                    "type": "uint256"
                },
                {
                    "internalType": "uint256",
                    "name": "stop",
                    "type": "uint256"
                }
            ],
            "name": "tokensOfOwnerIn",
            "outputs": [
                {
                    "internalType": "uint256[]",
                    "name": "",
                    "type": "uint256[]"
                }
            ],
            "stateMutability": "view",
            "type": "function"
        },
        {
            "inputs": [],
            "name": "totalSupply",
            "outputs": [
                {
                    "internalType": "uint256",
                    "name": "",
                    "type": "uint256"
                }
            ],
            "stateMutability": "view",
            "type": "function"
        },
        {
            "inputs": [
                {
                    "internalType": "address",
                    "name": "from",
                    "type": "address"
                },
                {
                    "internalType": "address",
                    "name": "to",
                    "type": "address"
                },
                {
                    "internalType": "uint256",
                    "name": "tokenId",
                    "type": "uint256"
                }
            ],
            "name": "transferFrom",
            "outputs": [],
            "stateMutability": "nonpayable",
            "type": "function"
        },
        {
            "inputs": [
                {
                    "internalType": "address",
                    "name": "operator",
                    "type": "address"
                }
            ],
            "name": "transferMasterOperator",
            "outputs": [],
            "stateMutability": "nonpayable",
            "type": "function"
        }
    ],
    "bytecode": "6080604052600a805460ff19169055655af3107a4000600b553480156200002557600080fd5b5060408051808201825260098082526821b430b930b1ba32b960b91b6020808401828152855180870190965292855284015281519192916200006a91600291620000ba565b50805162000080906003906020840190620000ba565b506000808155600880546001600160a01b031916339081179091558152600960205260409020805460ff19166001179055506200019c9050565b828054620000c89062000160565b90600052602060002090601f016020900481019282620000ec576000855562000137565b82601f106200010757805160ff191683800117855562000137565b8280016001018555821562000137579182015b82811115620001375782518255916020019190600101906200011a565b506200014592915062000149565b5090565b5b808211156200014557600081556001016200014a565b600181811c908216806200017557607f821691505b6020821081036200019657634e487b7160e01b600052602260045260246000fd5b50919050565b61415480620001ac6000396000f3fe6080604052600436106102255760003560e01c8063730c080911610123578063ac8a584a116100ab578063c87b56dd1161006f578063c87b56dd146106be578063ce49d15a146106de578063dabb0531146106fe578063e0fcf4bb1461072b578063e985e9c51461076057600080fd5b8063ac8a584a1461061c578063b88d4fde1461063c578063c23dc68f1461065c578063c4d66de814610689578063c587396b146106a957600080fd5b806395d89b41116100f257806395d89b41146105915780639870d7fe146105a657806399a2557a146105c6578063a035b1fe146105e6578063a22cb465146105fc57600080fd5b8063730c0809146104f65780638462151c146105245780638a499b71146105515780638a5fc36d1461057157600080fd5b8063262a8c3b116101b15780634810bc59116101755780634810bc591461042557806354d12f451461045c5780635bbb2177146104895780636352211e146104b657806370a08231146104d657600080fd5b8063262a8c3b1461039c5780632986c0e5146103bc5780632b1d5039146103d2578063427e7104146103e557806342842e0e1461040557600080fd5b806309674691116101f857806309674691146102db57806313e7c9d81461030857806318160ddd146103385780631a5cb6a41461035b57806323b872dd1461037c57600080fd5b806301ffc9a71461022a57806306fdde031461025f578063081812fc14610281578063095ea7b3146102b9575b600080fd5b34801561023657600080fd5b5061024a6102453660046133ae565b610780565b60405190151581526020015b60405180910390f35b34801561026b57600080fd5b506102746107d2565b6040516102569190613423565b34801561028d57600080fd5b506102a161029c366004613436565b610864565b6040516001600160a01b039091168152602001610256565b3480156102c557600080fd5b506102d96102d4366004613464565b6108a8565b005b3480156102e757600080fd5b506102fb6102f6366004613490565b61097a565b604051610256919061361e565b34801561031457600080fd5b5061024a610323366004613490565b60096020526000908152604090205460ff1681565b34801561034457600080fd5b50600154600054035b604051908152602001610256565b34801561036757600080fd5b5060085461024a90600160a01b900460ff1681565b34801561038857600080fd5b506102d9610397366004613631565b610be3565b3480156103a857600080fd5b506102d96103b7366004613672565b610bf3565b3480156103c857600080fd5b5061034d600c5481565b6102d96103e0366004613768565b6110c3565b3480156103f157600080fd5b506008546102a1906001600160a01b031681565b34801561041157600080fd5b506102d9610420366004613631565b611591565b34801561043157600080fd5b50610445610440366004613436565b6115ac565b6040516102569b9a999897969594939291906137b0565b34801561046857600080fd5b5061047c610477366004613436565b6116e8565b6040516102569190613941565b34801561049557600080fd5b506104a96104a4366004613954565b611858565b60405161025691906139f9565b3480156104c257600080fd5b506102a16104d1366004613436565b611916565b3480156104e257600080fd5b5061034d6104f1366004613490565b611921565b34801561050257600080fd5b50610516610511366004613490565b611969565b604051610256929190613a63565b34801561053057600080fd5b5061054461053f366004613490565b611ce3565b6040516102569190613a91565b34801561055d57600080fd5b506102d961056c366004613436565b611de4565b34801561057d57600080fd5b506102d961058c366004613490565b611eb6565b34801561059d57600080fd5b50610274611f2b565b3480156105b257600080fd5b506102d96105c1366004613490565b611f3a565b3480156105d257600080fd5b506105446105e1366004613ac9565b611ffd565b3480156105f257600080fd5b5061034d600b5481565b34801561060857600080fd5b506102d9610617366004613b0c565b612176565b34801561062857600080fd5b506102d9610637366004613490565b61220b565b34801561064857600080fd5b506102d9610657366004613b45565b6122f9565b34801561066857600080fd5b5061067c610677366004613436565b612343565b6040516102569190613bc4565b34801561069557600080fd5b506102d96106a4366004613490565b6123ac565b3480156106b557600080fd5b506102d9612402565b3480156106ca57600080fd5b506102746106d9366004613436565b61246a565b3480156106ea57600080fd5b506102d96106f9366004613c0b565b6124fa565b34801561070a57600080fd5b5061071e610719366004613436565b6125b4565b6040516102569190613c30565b34801561073757600080fd5b5061074b610746366004613c43565b612745565b60405163ffffffff9091168152602001610256565b34801561076c57600080fd5b5061024a61077b366004613c60565b612774565b60006301ffc9a760e01b6001600160e01b0319831614806107b157506380ac58cd60e01b6001600160e01b03198316145b806107cc5750635b5e139f60e01b6001600160e01b03198316145b92915050565b6060600280546107e190613c8e565b80601f016020809104026020016040519081016040528092919081815260200182805461080d90613c8e565b801561085a5780601f1061082f5761010080835404028352916020019161085a565b820191906000526020600020905b81548152906001019060200180831161083d57829003601f168201915b5050505050905090565b600061086f826127a2565b61088c576040516333d1c03960e21b815260040160405180910390fd5b506000908152600660205260409020546001600160a01b031690565b60006108b3826127c9565b9050806001600160a01b0316836001600160a01b0316036108e75760405163250fdee360e21b815260040160405180910390fd5b336001600160a01b0382161461091e576109018133612774565b61091e576040516367d9dca160e11b815260040160405180910390fd5b60008281526006602052604080822080546001600160a01b0319166001600160a01b0387811691821790925591518593918516917f8c5be1e5ebec7d5bd14f71427d1e84f3dd0314c0f7b2291e5b200ac8c7c3b92591a4505050565b6060600061098783611ce3565b9050600081516001600160401b038111156109a4576109a4613694565b6040519080825280602002602001820160405280156109dd57816020015b6109ca61320d565b8152602001906001900390816109c25790505b50905060005b8251811015610bdb57600e6000848381518110610a0257610a02613cc2565b60200260200101518152602001908152602001600020604051806101600160405290816000820160009054906101000a90046001600160a01b03166001600160a01b03166001600160a01b03168152602001600182018054610a6390613c8e565b80601f0160208091040260200160405190810160405280929190818152602001828054610a8f90613c8e565b8015610adc5780601f10610ab157610100808354040283529160200191610adc565b820191906000526020600020905b815481529060010190602001808311610abf57829003601f168201915b50505091835250506002820154602080830191909152600383015463ffffffff808216604080860191909152600160201b83048216606080870191909152600160401b84048316608080880191909152600160601b8504841660a080890191909152600160801b8604851660c0890152600160a01b8604851660e0890152600160c01b90950490931661010087015281519384018252600487015484526005870154948401949094526006860154908301526007850154928201929092526008909301549083015261012001528251839083908110610bbd57610bbd613cc2565b60200260200101819052508080610bd390613cee565b9150506109e3565b509392505050565b610bee838383612830565b505050565b6000828152600e602052604090819020600d5491516331a9108f60e11b815260048101849052909133916001600160a01b0390911690636352211e90602401602060405180830381865afa158015610c4f573d6000803e3d6000fd5b505050506040513d601f19601f82011682018060405250810190610c739190613d07565b6001600160a01b031614610c9a576040516391ad8ff160e01b815260040160405180910390fd5b600d5460405163040ee97d60e51b8152600481018490526000916001600160a01b0316906381dd2fa090602401600060405180830381865afa158015610ce4573d6000803e3d6000fd5b505050506040513d6000823e601f3d908101601f19168201604052610d0c9190810190613d84565b6101008101519091501515600103610d3757604051632e53a30360e01b815260040160405180910390fd5b6000848152600f6020908152604080832060e085015163ffffffff16845290915280822081516101208101909252805482908290610d7490613c8e565b80601f0160208091040260200160405190810160405280929190818152602001828054610da090613c8e565b8015610ded5780601f10610dc257610100808354040283529160200191610ded565b820191906000526020600020905b815481529060010190602001808311610dd057829003601f168201915b50505091835250506001820154602082015260029091015463ffffffff808216604080850191909152600160201b830482166060850152600160401b80840483166080860152600160601b8404831660a0860152600160801b8404831660c0860152600160a01b8404831660e0860152600160c01b90930460ff16151561010090940193909352838301519286015160038801549495509293610e939392900416613e77565b610e9d9190613e9f565b60038401805463ffffffff60401b1916600160401b63ffffffff938416021790819055606083810151908501519092610edd92600160601b900416613e77565b610ee79190613e9f565b60038401805463ffffffff60601b1916600160601b63ffffffff93841602179081905560a083810151908501519092610f2792600160801b900416613e77565b610f319190613e9f565b60038401805463ffffffff60801b1916600160801b63ffffffff93841602179081905560c083810151908501519092610f7192600160c01b900416613e77565b610f7b9190613e9f565b60038401805463ffffffff60c01b1916600160c01b63ffffffff938416021790819055608083810151908501519092610fbb92600160a01b900416613e77565b610fc59190613e9f565b60038401805463ffffffff92909216600160a01b0263ffffffff60a01b19909216919091179055600d5460405163a272541760e01b815260048101869052600160248201526001600160a01b039091169063a272541790604401600060405180830381600087803b15801561103957600080fd5b505af115801561104d573d6000803e3d6000fd5b5050600d54602084015160405163a272541760e01b81526004810191909152600060248201526001600160a01b03909116925063a27254179150604401600060405180830381600087803b1580156110a457600080fd5b505af11580156110b8573d6000803e3d6000fd5b505050505050505050565b600b543410156110e657604051632ca2f52b60e11b815260040160405180910390fd5b600d54600160e01b900463ffffffff16431461113057600d805463ffffffff60c01b1963ffffffff4316600160e01b02166001600160c01b0390911617600160c01b17905561116c565b600d5461114b90600160c01b900463ffffffff166001613e77565b600d60186101000a81548163ffffffff021916908363ffffffff1602179055505b6111773360016129e9565b600d54600090600160c01b900463ffffffff1633611196600143613ec4565b6111a1919040613ef1565b6111ab9190613f05565b6040516020016111bd91815260200190565b6040516020818303038152906040529050600061120a6003600a84600186516111e69190613ec4565b815181106111f6576111f6613cc2565b01602001516001600160f81b031916612ac4565b905060006112246002600785600287516111e69190613ec4565b9050600061123e6002600786600388516111e69190613ec4565b905060006112586002600787600489516111e69190613ec4565b90506000611272600260078860058a516111e69190613ec4565b9050604051806101600160405280336001600160a01b03168152602001888152602001600c548152602001600163ffffffff168152602001600063ffffffff1681526020018663ffffffff1681526020018563ffffffff1681526020018463ffffffff1681526020018363ffffffff1681526020018263ffffffff1681526020016040518060a001604052808960018b5161130d9190613ec4565b8151811061131d5761131d613cc2565b0160209081015160f81c82528a519101908a9061133c90600290613ec4565b8151811061134c5761134c613cc2565b0160209081015160f81c82528a519101908a9061136b90600390613ec4565b8151811061137b5761137b613cc2565b0160209081015160f81c82528a519101908a9061139a90600490613ec4565b815181106113aa576113aa613cc2565b0160209081015160f81c82528a519101908a906113c990600590613ec4565b815181106113d9576113d9613cc2565b6020910181015160f81c9091529152600c546000908152600e825260409020825181546001600160a01b0319166001600160a01b03909116178155828201518051919261142e926001850192909101906132c9565b50604082810151600283015560608084015160038401805460808088015160a089015160c08a015160e08b01516101008c01516101208d015163ffffffff908116600160c01b0263ffffffff60c01b19928216600160a01b0263ffffffff60a01b19948316600160801b029490941667ffffffffffffffff60801b19958316600160601b0263ffffffff60601b19978416600160401b02979097166fffffffffffffffff000000000000000019988416600160201b0267ffffffffffffffff19909b1693909c1692909217989098179590951698909817929092171691909117179390931617905561014090940151805160048501556020810151600585015580830151600685015590810151600784015590920151600890910155600c54905133907f01269de8ca9889348c81498ea6aa98b1f133bd5b3e20a212c24d9858ddd9b63690600090a3600c54611585906001613f05565b600c5550505050505050565b610bee838383604051806020016040528060008152506122f9565b600e60205260009081526040902080546001820180546001600160a01b0390921692916115d890613c8e565b80601f016020809104026020016040519081016040528092919081815260200182805461160490613c8e565b80156116515780601f1061162657610100808354040283529160200191611651565b820191906000526020600020905b81548152906001019060200180831161163457829003601f168201915b505050600284015460038501546040805160a08101825260048801548152600588015460208201526006880154918101919091526007870154606082015260089096015460808701529394909363ffffffff8082169450600160201b820481169350600160401b8204811692600160601b8304821692600160801b8104831692600160a01b8204811692600160c01b90920416908b565b606060005b6005811015611852576000838152600f60209081526040808320848452909152908190208151610120810190925280548290829061172a90613c8e565b80601f016020809104026020016040519081016040528092919081815260200182805461175690613c8e565b80156117a35780601f10611778576101008083540402835291602001916117a3565b820191906000526020600020905b81548152906001019060200180831161178657829003601f168201915b50505091835250506001820154602082015260029091015463ffffffff8082166040840152600160201b820481166060840152600160401b820481166080840152600160601b8204811660a0840152600160801b8204811660c0840152600160a01b82041660e0830152600160c01b900460ff16151561010090910152825183908390811061183457611834613cc2565b6020026020010181905250808061184a90613cee565b9150506116ed565b50919050565b80516060906000816001600160401b0381111561187757611877613694565b6040519080825280602002602001820160405280156118c257816020015b60408051606081018252600080825260208083018290529282015282526000199092019101816118955790505b50905060005b828114610bdb576118f18582815181106118e4576118e4613cc2565b6020026020010151612343565b82828151811061190357611903613cc2565b60209081029190910101526001016118c8565b60006107cc826127c9565b600081600003611944576040516323d3ad8160e21b815260040160405180910390fd5b506001600160a01b03166000908152600560205260409020546001600160401b031690565b606080600061197784611ce3565b905060005b8151811015611cdc57600e600083838151811061199b5761199b613cc2565b60200260200101518152602001908152602001600020604051806101600160405290816000820160009054906101000a90046001600160a01b03166001600160a01b03166001600160a01b031681526020016001820180546119fc90613c8e565b80601f0160208091040260200160405190810160405280929190818152602001828054611a2890613c8e565b8015611a755780601f10611a4a57610100808354040283529160200191611a75565b820191906000526020600020905b815481529060010190602001808311611a5857829003601f168201915b50505091835250506002820154602080830191909152600383015463ffffffff808216604080860191909152600160201b83048216606080870191909152600160401b84048316608080880191909152600160601b8504841660a080890191909152600160801b8604851660c0890152600160a01b8604851660e0890152600160c01b90950490931661010087015281519384018252600487015484526005870154948401949094526006860154908301526007850154928201929092526008909301549083015261012001528451859083908110611b5657611b56613cc2565b602002602001018190525060005b6005811015611cc9576000828152600f602090815260408083208484529091529081902081516101208101909252805482908290611ba190613c8e565b80601f0160208091040260200160405190810160405280929190818152602001828054611bcd90613c8e565b8015611c1a5780601f10611bef57610100808354040283529160200191611c1a565b820191906000526020600020905b815481529060010190602001808311611bfd57829003601f168201915b50505091835250506001820154602082015260029091015463ffffffff8082166040840152600160201b820481166060840152600160401b820481166080840152600160601b8204811660a0840152600160801b8204811660c0840152600160a01b82041660e0830152600160c01b900460ff161515610100909101528451859083908110611cab57611cab613cc2565b60200260200101819052508080611cc190613cee565b915050611b64565b5080611cd481613cee565b91505061197c565b5050915091565b60606000806000611cf385611921565b90506000816001600160401b03811115611d0f57611d0f613694565b604051908082528060200260200182016040528015611d38578160200160208202803683370190505b509050611d5e604080516060810182526000808252602082018190529181019190915290565b60005b838614611dd857611d7181612b32565b91508160400151611dd05781516001600160a01b031615611d9157815194505b876001600160a01b0316856001600160a01b031603611dd05780838780600101985081518110611dc357611dc3613cc2565b6020026020010181815250505b600101611d61565b50909695505050505050565b33611dee82611916565b6001600160a01b031614611e15576040516330cd747160e01b815260040160405180910390fd5b611e1e81612b67565b6000818152600e6020526040812080546001600160a01b031916815590611e48600183018261334d565b506000600282018190556003820180546001600160e01b0319169055600482018190556005820181905560068201819055600782018190556008909101819055604051829133917f90b8b0d918a0b40ddc01490e0159e32e379f3faae8eda99294d28ad136bb3df19190a350565b6008546001600160a01b03163314611ee157604051632a20a40b60e01b815260040160405180910390fd5b600880546001600160a01b0319166001600160a01b0383169081179091556040517f88a3e6c8d79bb93f797c7b43abeda15c1b46045f72356c83c1cbdc1e09add4b790600090a250565b6060600380546107e190613c8e565b3360009081526009602052604081205460ff1615159003611f6e57604051631f0853c160e21b815260040160405180910390fd5b600854600160a01b900460ff16158015611f9357506008546001600160a01b03163314155b15611fb157604051639bf6d7c560e01b815260040160405180910390fd5b6001600160a01b038116600081815260096020526040808220805460ff19166001179055517fac6fa858e9350a46cec16539926e0fde25b7629f84b5a72bffaae4df888ae86d9190a250565b606081831061201f57604051631960ccad60e11b815260040160405180910390fd5b60008061202b60005490565b905080841115612039578093505b600061204487611921565b905084861015612063578585038181101561205d578091505b50612067565b5060005b6000816001600160401b0381111561208157612081613694565b6040519080825280602002602001820160405280156120aa578160200160208202803683370190505b509050816000036120c057935061216f92505050565b60006120cb88612343565b9050600081604001516120dc575080515b885b8881141580156120ee5750848714155b15612163576120fc81612b32565b9250826040015161215b5782516001600160a01b03161561211c57825191505b8a6001600160a01b0316826001600160a01b03160361215b578084888060010199508151811061214e5761214e613cc2565b6020026020010181815250505b6001016120de565b50505092835250909150505b9392505050565b336001600160a01b0383160361219f5760405163b06307db60e01b815260040160405180910390fd5b3360008181526007602090815260408083206001600160a01b03871680855290835292819020805460ff191686151590811790915590519081529192917f17307eab39ab6107e8899845ad3d59bd9653f200f220920489ca2b5937696c31910160405180910390a35050565b3360009081526009602052604081205460ff161515900361223f57604051631f0853c160e21b815260040160405180910390fd5b6008546001600160a01b0380831691160361226d57604051632f7d8a4760e21b815260040160405180910390fd5b600854600160a01b900460ff1615801561229257506008546001600160a01b03163314155b156122b057604051639bf6d7c560e01b815260040160405180910390fd5b6001600160a01b038116600081815260096020526040808220805460ff19169055517f80c0b871b97b595b16a7741c1b06fed0c6f6f558639f18ccbce50724325dc40d9190a250565b612304848484612830565b6001600160a01b0383163b1561233d5761232084848484612b75565b61233d576040516368d2bf6b60e11b815260040160405180910390fd5b50505050565b60408051606080820183526000808352602080840182905283850182905284519283018552818352820181905292810183905290915060005483106123885792915050565b61239183612b32565b90508060400151156123a35792915050565b61216f83612c61565b3360009081526009602052604081205460ff16151590036123e057604051631f0853c160e21b815260040160405180910390fd5b600d80546001600160a01b0319166001600160a01b0392909216919091179055565b6008546001600160a01b0316331461242d57604051632a20a40b60e01b815260040160405180910390fd5b600880546001600160a01b03191690556040516000907f88a3e6c8d79bb93f797c7b43abeda15c1b46045f72356c83c1cbdc1e09add4b7908290a2565b6060612475826127a2565b61249257604051630a14c4b560e41b815260040160405180910390fd5b60006124a960408051602081019091526000815290565b905080516000036124c9576040518060200160405280600081525061216f565b806124d384612c8f565b6040516020016124e4929190613f1d565b6040516020818303038152906040529392505050565b3360009081526009602052604081205460ff161515900361252e57604051631f0853c160e21b815260040160405180910390fd5b6000828152600e602052604090206003810154612559908390600160201b900463ffffffff16613e77565b60038201805463ffffffff928316600160201b0267ffffffff00000000198216811790925561258d92918216911617612745565b600382015463ffffffff918216600160201b9091049091161115610bee57610bee81612cde565b6125bc61320d565b6000828152600e60209081526040918290208251610160810190935280546001600160a01b0316835260018101805491928401916125f990613c8e565b80601f016020809104026020016040519081016040528092919081815260200182805461262590613c8e565b80156126725780601f1061264757610100808354040283529160200191612672565b820191906000526020600020905b81548152906001019060200180831161265557829003601f168201915b50505091835250506002820154602080830191909152600383015463ffffffff808216604080860191909152600160201b83048216606080870191909152600160401b84048316608080880191909152600160601b8504841660a080890191909152600160801b8604851660c0890152600160a01b8604851660e0890152600160c01b909504909316610100870152815193840182526004870154845260058701549484019490945260068601549083015260078501549282019290925260089093015490830152610120015292915050565b60006005612754600284614056565b61275f90600461406b565b6127699190614097565b6107cc906032613e77565b6001600160a01b03918216600090815260076020908152604080832093909416825291909152205460ff1690565b60008054821080156107cc575050600090815260046020526040902054600160e01b161590565b6000816000548110156128175760008181526004602052604081205490600160e01b82169003612815575b8060000361216f5750600019016000818152600460205260409020546127f4565b505b604051636f96cda160e11b815260040160405180910390fd5b600061283b826127c9565b9050836001600160a01b0316816001600160a01b03161461286e5760405162a1148160e81b815260040160405180910390fd5b6000828152600660205260408120546001600160a01b039081169190861633148061289e575061289e8633612774565b806128b157506001600160a01b03821633145b9050806128d157604051632ce44b5f60e11b815260040160405180910390fd5b846000036128f257604051633a954ecd60e21b815260040160405180910390fd5b811561291557600084815260066020526040902080546001600160a01b03191690555b6001600160a01b038681166000908152600560209081526040808320805460001901905592881682528282208054600101905586825260049052908120600160e11b4260a01b88178117909155841690036129a05760018401600081815260046020526040812054900361299e57600054811461299e5760008181526004602052604090208490555b505b83856001600160a01b0316876001600160a01b03167fddf252ad1be2c89b69c2b068fc378daa952ba7f163c4a11628f55a4df523b3ef60405160405180910390a4505050505050565b60005482600003612a0c57604051622e076360e81b815260040160405180910390fd5b81600003612a2d5760405163b562e8dd60e01b815260040160405180910390fd5b6001600160a01b03831660009081526005602090815260408083208054680100000000000000018702019055838352600490915290204260a01b84176001841460e11b179055808083015b6040516001830192906001600160a01b038716906000907fddf252ad1be2c89b69c2b068fc378daa952ba7f163c4a11628f55a4df523b3ef908290a4808210612a785750600055505050565b600080612adc6001612ad68688613038565b90613044565b6040516001600160f81b031985166020820152909150600090612b1c90839060210160408051601f19818403018152919052805160209091012090613050565b9050612b288187613044565b9695505050505050565b60408051606081018252600080825260208201819052918101919091526000828152600460205260409020546107cc9061305c565b612b72816000613096565b50565b604051630a85bd0160e11b81526000906001600160a01b0385169063150b7a0290612baa9033908990889088906004016140ba565b6020604051808303816000875af1925050508015612be5575060408051601f3d908101601f19168201909252612be2918101906140ed565b60015b612c43573d808015612c13576040519150601f19603f3d011682016040523d82523d6000602084013e612c18565b606091505b508051600003612c3b576040516368d2bf6b60e11b815260040160405180910390fd5b805181602001fd5b6001600160e01b031916630a85bd0160e11b1490505b949350505050565b60408051606081018252600080825260208201819052918101919091526107cc612c8a836127c9565b61305c565b604080516080810191829052607f0190826030600a8206018353600a90045b8015612ccc57600183039250600a81066030018353600a9004612cae565b50819003601f19909101908152919050565b6003810154612cf29063ffffffff16612745565b6003820154612d0e9190600160201b900463ffffffff16613e9f565b60038201805463ffffffff928316600160201b0267ffffffff000000001982168117909255612d44929182169116176001613e77565b60038201805463ffffffff191663ffffffff929092169182179055600482015460ff91612d709161406b565b612d7a9190614097565b600380830154612d929163ffffffff9091169061406b565b600383810154612da8919063ffffffff16614056565b612db29190614097565b612dbd90600a613e77565b612dc79190613e77565b60038201805463ffffffff928316600160401b0263ffffffff60401b1982168117909255600584015460ff93612e059381169216919091179061406b565b612e0f9190614097565b6003820154612e259063ffffffff16600f61406b565b600383810154612e3b919063ffffffff16614056565b612e459190614097565b612e50906002613e77565b612e5a9190613e77565b60038201805463ffffffff928316600160601b0263ffffffff60601b1982168117909255600884015460ff93612e989381169216919091179061406b565b612ea29190614097565b6003820154612eb89063ffffffff16600f61406b565b600383810154612ece919063ffffffff16614056565b612ed89190614097565b612ee3906002613e77565b612eed9190613e77565b60038201805463ffffffff928316600160a01b0263ffffffff60a01b1982168117909255600784015460ff93612f2b9381169216919091179061406b565b612f359190614097565b6003820154612f4b9063ffffffff16600f61406b565b600383810154612f61919063ffffffff16614056565b612f6b9190614097565b612f76906002613e77565b612f809190613e77565b60038201805463ffffffff928316600160c01b0263ffffffff60c01b1982168117909255600684015460ff93612fbe9381169216919091179061406b565b612fc89190614097565b6003820154612fde9063ffffffff16600f61406b565b600383810154612ff4919063ffffffff16614056565b612ffe9190614097565b613009906002613e77565b6130139190613e77565b8160030160106101000a81548163ffffffff021916908363ffffffff16021790555050565b600061216f8284613ec4565b600061216f8284613f05565b600061216f828461410a565b604080516060810182526001600160a01b038316815260a083901c6001600160401b03166020820152600160e01b90921615159082015290565b60006130a1836127c9565b60008481526006602052604090205490915081906001600160a01b03168315613117576000336001600160a01b03841614806130e257506130e28333612774565b806130f557506001600160a01b03821633145b90508061311557604051632ce44b5f60e11b815260040160405180910390fd5b505b801561313a57600085815260066020526040902080546001600160a01b03191690555b6001600160a01b038216600090815260056020908152604080832080546fffffffffffffffffffffffffffffffff01905587835260049091528120600360e01b4260a01b8517179055600160e11b841690036131c6576001850160008181526004602052604081205490036131c45760005481146131c45760008181526004602052604090208490555b505b60405185906000906001600160a01b038516907fddf252ad1be2c89b69c2b068fc378daa952ba7f163c4a11628f55a4df523b3ef908390a450506001805481019055505050565b60405180610160016040528060006001600160a01b031681526020016060815260200160008152602001600063ffffffff168152602001600063ffffffff168152602001600063ffffffff168152602001600063ffffffff168152602001600063ffffffff168152602001600063ffffffff168152602001600063ffffffff1681526020016132c46040518060a0016040528060008152602001600081526020016000815260200160008152602001600081525090565b905290565b8280546132d590613c8e565b90600052602060002090601f0160209004810192826132f7576000855561333d565b82601f1061331057805160ff191683800117855561333d565b8280016001018555821561333d579182015b8281111561333d578251825591602001919060010190613322565b50613349929150613383565b5090565b50805461335990613c8e565b6000825580601f10613369575050565b601f016020900490600052602060002090810190612b7291905b5b808211156133495760008155600101613384565b6001600160e01b031981168114612b7257600080fd5b6000602082840312156133c057600080fd5b813561216f81613398565b60005b838110156133e65781810151838201526020016133ce565b8381111561233d5750506000910152565b6000815180845261340f8160208601602086016133cb565b601f01601f19169290920160200192915050565b60208152600061216f60208301846133f7565b60006020828403121561344857600080fd5b5035919050565b6001600160a01b0381168114612b7257600080fd5b6000806040838503121561347757600080fd5b82356134828161344f565b946020939093013593505050565b6000602082840312156134a257600080fd5b813561216f8161344f565b80516001600160a01b0316825260006101e060208301518160208601526134d6828601826133f7565b9150506040830151604085015260608301516134fa606086018263ffffffff169052565b506080830151613512608086018263ffffffff169052565b5060a083015161352a60a086018263ffffffff169052565b5060c083015161354260c086018263ffffffff169052565b5060e083015161355a60e086018263ffffffff169052565b506101008381015163ffffffff81168683015250506101208381015163ffffffff8116868301525050610140838101518051868301526020810151610160870152604081015161018087015260608101516101a087015260808101516101c08701525090949350505050565b600082825180855260208086019550808260051b84010181860160005b8481101561361157601f198684030189526135ff8383516134ad565b988401989250908301906001016135e3565b5090979650505050505050565b60208152600061216f60208301846135c6565b60008060006060848603121561364657600080fd5b83356136518161344f565b925060208401356136618161344f565b929592945050506040919091013590565b6000806040838503121561368557600080fd5b50508035926020909101359150565b634e487b7160e01b600052604160045260246000fd5b60405161012081016001600160401b03811182821017156136cd576136cd613694565b60405290565b604051601f8201601f191681016001600160401b03811182821017156136fb576136fb613694565b604052919050565b60006001600160401b0382111561371c5761371c613694565b50601f01601f191660200190565b600061373d61373884613703565b6136d3565b905082815283838301111561375157600080fd5b828260208301376000602084830101529392505050565b60006020828403121561377a57600080fd5b81356001600160401b0381111561379057600080fd5b8201601f810184136137a157600080fd5b612c598482356020840161372a565b6001600160a01b038c1681526101e0602082018190526000906137d58382018e6133f7565b604084018d905263ffffffff8c811660608601528b811660808601528a811660a086015289811660c086015288811660e08601528716610100850152915061381a9050565b63ffffffff841661012083015282516101408301526020830151610160830152604083015161018083015260608301516101a083015260808301516101c08301529c9b505050505050505050505050565b600081518084526020808501808196508360051b8101915082860160005b85811015613934578284038952815161012081518187526138ac828801826133f7565b91505086820151878701526040808301516138ce8289018263ffffffff169052565b505060608281015163ffffffff9081169188019190915260808084015182169088015260a08084015182169088015260c08084015182169088015260e0808401519091169087015261010091820151151591909501529784019790840190600101613889565b5091979650505050505050565b60208152600061216f602083018461386b565b6000602080838503121561396757600080fd5b82356001600160401b038082111561397e57600080fd5b818501915085601f83011261399257600080fd5b8135818111156139a4576139a4613694565b8060051b91506139b58483016136d3565b81815291830184019184810190888411156139cf57600080fd5b938501935b838510156139ed578435825293850193908501906139d4565b98975050505050505050565b6020808252825182820181905260009190848201906040850190845b81811015611dd857613a5083855180516001600160a01b031682526020808201516001600160401b0316908301526040908101511515910152565b9284019260609290920191600101613a15565b604081526000613a7660408301856135c6565b8281036020840152613a88818561386b565b95945050505050565b6020808252825182820181905260009190848201906040850190845b81811015611dd857835183529284019291840191600101613aad565b600080600060608486031215613ade57600080fd5b8335613ae98161344f565b95602085013595506040909401359392505050565b8015158114612b7257600080fd5b60008060408385031215613b1f57600080fd5b8235613b2a8161344f565b91506020830135613b3a81613afe565b809150509250929050565b60008060008060808587031215613b5b57600080fd5b8435613b668161344f565b93506020850135613b768161344f565b92506040850135915060608501356001600160401b03811115613b9857600080fd5b8501601f81018713613ba957600080fd5b613bb88782356020840161372a565b91505092959194509250565b81516001600160a01b031681526020808301516001600160401b031690820152604080830151151590820152606081016107cc565b63ffffffff81168114612b7257600080fd5b60008060408385031215613c1e57600080fd5b823591506020830135613b3a81613bf9565b60208152600061216f60208301846134ad565b600060208284031215613c5557600080fd5b813561216f81613bf9565b60008060408385031215613c7357600080fd5b8235613c7e8161344f565b91506020830135613b3a8161344f565b600181811c90821680613ca257607f821691505b60208210810361185257634e487b7160e01b600052602260045260246000fd5b634e487b7160e01b600052603260045260246000fd5b634e487b7160e01b600052601160045260246000fd5b600060018201613d0057613d00613cd8565b5060010190565b600060208284031215613d1957600080fd5b815161216f8161344f565b600082601f830112613d3557600080fd5b8151613d4361373882613703565b818152846020838601011115613d5857600080fd5b612c598260208301602087016133cb565b8051613d7481613bf9565b919050565b8051613d7481613afe565b600060208284031215613d9657600080fd5b81516001600160401b0380821115613dad57600080fd5b908301906101208286031215613dc257600080fd5b613dca6136aa565b825182811115613dd957600080fd5b613de587828601613d24565b82525060208301516020820152613dfe60408401613d69565b6040820152613e0f60608401613d69565b6060820152613e2060808401613d69565b6080820152613e3160a08401613d69565b60a0820152613e4260c08401613d69565b60c0820152613e5360e08401613d69565b60e08201526101009150613e68828401613d79565b91810191909152949350505050565b600063ffffffff808316818516808303821115613e9657613e96613cd8565b01949350505050565b600063ffffffff83811690831681811015613ebc57613ebc613cd8565b039392505050565b600082821015613ed657613ed6613cd8565b500390565b634e487b7160e01b600052601260045260246000fd5b600082613f0057613f00613edb565b500490565b60008219821115613f1857613f18613cd8565b500190565b60008351613f2f8184602088016133cb565b835190830190613e968183602088016133cb565b60018163ffffffff825b80861115613f8157828204831115613f6757613f67613cd8565b80861615613f7457928202925b94851c9491800291613f4d565b50509250929050565b600082613f99575060016107cc565b81613fa6575060006107cc565b8160018114613fbc5760028114613fc657613ff7565b60019150506107cc565b60ff841115613fd757613fd7613cd8565b6001841b915063ffffffff821115613ff157613ff1613cd8565b506107cc565b5060208310610133831016604e8410600b841016171561402e575081810a63ffffffff81111561402957614029613cd8565b6107cc565b6140388383613f43565b8063ffffffff0482111561404e5761404e613cd8565b029392505050565b600061216f60ff841663ffffffff8416613f8a565b600063ffffffff8083168185168183048111821515161561408e5761408e613cd8565b02949350505050565b600063ffffffff808416806140ae576140ae613edb565b92169190910492915050565b6001600160a01b0385811682528416602082015260408101839052608060608201819052600090612b28908301846133f7565b6000602082840312156140ff57600080fd5b815161216f81613398565b60008261411957614119613edb565b50069056fea264697066735822122058f7ad8ebb1772cfaa62115d0213148e5f02d97535639c6b53dcd3b87d0170d664736f6c634300080d0033",
    "sourcePath": "/Users/kmo/github/Game/contracts/Character.sol",
    "compiler": {
        "name": "solc",
        "version": "0.8.13+commit.abaa5c0e"
    },
    "functionHashes": {
        "addOperator(address)": "9870d7fe",
        "approve(address,uint256)": "095ea7b3",
        "balanceOf(address)": "70a08231",
        "burnCharacter(uint256)": "8a499b71",
        "characters(uint256)": "4810bc59",
        "equipItem(uint256,uint256)": "262a8c3b",
        "explicitOwnershipOf(uint256)": "c23dc68f",
        "explicitOwnershipsOf(uint256[])": "5bbb2177",
        "gainExperience(uint256,uint32)": "ce49d15a",
        "getApproved(uint256)": "081812fc",
        "getCharacter(uint256)": "dabb0531",
        "getCharacterEquipment(uint256)": "54d12f45",
        "getCharactersAndEquipOfOwner(address)": "730c0809",
        "getCharactersOfOwner(address)": "09674691",
        "index()": "2986c0e5",
        "initialize(address)": "c4d66de8",
        "isApprovedForAll(address,address)": "e985e9c5",
        "masterOperator()": "427e7104",
        "mintCharacter(string)": "2b1d5039",
        "name()": "06fdde03",
        "operators(address)": "13e7c9d8",
        "operatorsCanWrite()": "1a5cb6a4",
        "ownerOf(uint256)": "6352211e",
        "price()": "a035b1fe",
        "relinquishOwnership()": "c587396b",
        "removeOperator(address)": "ac8a584a",
        "safeTransferFrom(address,address,uint256)": "42842e0e",
        "safeTransferFrom(address,address,uint256,bytes)": "b88d4fde",
        "setApprovalForAll(address,bool)": "a22cb465",
        "supportsInterface(bytes4)": "01ffc9a7",
        "symbol()": "95d89b41",
        "toNextLevel(uint32)": "e0fcf4bb",
        "tokenURI(uint256)": "c87b56dd",
        "tokensOfOwner(address)": "8462151c",
        "tokensOfOwnerIn(address,uint256,uint256)": "99a2557a",
        "totalSupply()": "18160ddd",
        "transferFrom(address,address,uint256)": "23b872dd",
        "transferMasterOperator(address)": "8a5fc36d"
    },
    "gasEstimates": {
        "creation": {
            "codeDepositCost": "3344800",
            "executionCost": "infinite",
            "totalCost": "infinite"
        },
        "external": {
            "addOperator(address)": "32316",
            "approve(address,uint256)": "infinite",
            "balanceOf(address)": "2722",
            "burnCharacter(uint256)": "infinite",
            "characters(uint256)": "infinite",
            "equipItem(uint256,uint256)": "infinite",
            "explicitOwnershipOf(uint256)": "infinite",
            "explicitOwnershipsOf(uint256[])": "infinite",
            "gainExperience(uint256,uint32)": "infinite",
            "getApproved(uint256)": "6948",
            "getCharacter(uint256)": "infinite",
            "getCharacterEquipment(uint256)": "infinite",
            "getCharactersAndEquipOfOwner(address)": "infinite",
            "getCharactersOfOwner(address)": "infinite",
            "index()": "2363",
            "initialize(address)": "26879",
            "isApprovedForAll(address,address)": "infinite",
            "masterOperator()": "2449",
            "mintCharacter(string)": "infinite",
            "name()": "infinite",
            "operators(address)": "2582",
            "operatorsCanWrite()": "2428",
            "ownerOf(uint256)": "infinite",
            "price()": "2406",
            "relinquishOwnership()": "27796",
            "removeOperator(address)": "34438",
            "safeTransferFrom(address,address,uint256)": "infinite",
            "safeTransferFrom(address,address,uint256,bytes)": "infinite",
            "setApprovalForAll(address,bool)": "infinite",
            "supportsInterface(bytes4)": "557",
            "symbol()": "infinite",
            "toNextLevel(uint32)": "infinite",
            "tokenURI(uint256)": "infinite",
            "tokensOfOwner(address)": "infinite",
            "tokensOfOwnerIn(address,uint256,uint256)": "infinite",
            "totalSupply()": "4477",
            "transferFrom(address,address,uint256)": "infinite",
            "transferMasterOperator(address)": "27956"
        },
        "internal": {
            "_gainLevel(struct Character storage pointer)": "infinite"
        }
    }
}