{
    "contractName": "Guild",
    "abi": [
        {
            "inputs": [],
            "stateMutability": "nonpayable",
            "type": "constructor"
        },
        {
            "inputs": [],
            "name": "Initialized",
            "type": "error"
        },
        {
            "inputs": [],
            "name": "LevelRequirementNotMet",
            "type": "error"
        },
        {
            "inputs": [],
            "name": "NotCharacterOwner",
            "type": "error"
        },
        {
            "inputs": [],
            "name": "NotInvited",
            "type": "error"
        },
        {
            "inputs": [],
            "name": "NotMember",
            "type": "error"
        },
        {
            "anonymous": false,
            "inputs": [
                {
                    "indexed": true,
                    "internalType": "address",
                    "name": "owner",
                    "type": "address"
                },
                {
                    "indexed": true,
                    "internalType": "address",
                    "name": "approved",
                    "type": "address"
                },
                {
                    "indexed": true,
                    "internalType": "uint256",
                    "name": "tokenId",
                    "type": "uint256"
                }
            ],
            "name": "Approval",
            "type": "event"
        },
        {
            "anonymous": false,
            "inputs": [
                {
                    "indexed": true,
                    "internalType": "address",
                    "name": "owner",
                    "type": "address"
                },
                {
                    "indexed": true,
                    "internalType": "address",
                    "name": "operator",
                    "type": "address"
                },
                {
                    "indexed": false,
                    "internalType": "bool",
                    "name": "approved",
                    "type": "bool"
                }
            ],
            "name": "ApprovalForAll",
            "type": "event"
        },
        {
            "anonymous": false,
            "inputs": [
                {
                    "indexed": true,
                    "internalType": "address",
                    "name": "owner",
                    "type": "address"
                },
                {
                    "indexed": true,
                    "internalType": "uint256",
                    "name": "withdrawal",
                    "type": "uint256"
                }
            ],
            "name": "BankWithdrawl",
            "type": "event"
        },
        {
            "anonymous": false,
            "inputs": [
                {
                    "indexed": true,
                    "internalType": "address",
                    "name": "owner",
                    "type": "address"
                },
                {
                    "indexed": true,
                    "internalType": "uint256",
                    "name": "donation",
                    "type": "uint256"
                }
            ],
            "name": "Donation",
            "type": "event"
        },
        {
            "anonymous": false,
            "inputs": [
                {
                    "indexed": true,
                    "internalType": "address",
                    "name": "owner",
                    "type": "address"
                },
                {
                    "indexed": true,
                    "internalType": "uint256",
                    "name": "characterID",
                    "type": "uint256"
                }
            ],
            "name": "MemberJoined",
            "type": "event"
        },
        {
            "anonymous": false,
            "inputs": [
                {
                    "indexed": true,
                    "internalType": "address",
                    "name": "owner",
                    "type": "address"
                },
                {
                    "indexed": true,
                    "internalType": "uint256",
                    "name": "characterID",
                    "type": "uint256"
                }
            ],
            "name": "MemberLeft",
            "type": "event"
        },
        {
            "anonymous": false,
            "inputs": [
                {
                    "indexed": true,
                    "internalType": "address",
                    "name": "previousOwner",
                    "type": "address"
                },
                {
                    "indexed": true,
                    "internalType": "address",
                    "name": "newOwner",
                    "type": "address"
                }
            ],
            "name": "OwnershipTransferred",
            "type": "event"
        },
        {
            "anonymous": false,
            "inputs": [
                {
                    "indexed": true,
                    "internalType": "address",
                    "name": "from",
                    "type": "address"
                },
                {
                    "indexed": true,
                    "internalType": "address",
                    "name": "to",
                    "type": "address"
                },
                {
                    "indexed": true,
                    "internalType": "uint256",
                    "name": "tokenId",
                    "type": "uint256"
                }
            ],
            "name": "Transfer",
            "type": "event"
        },
        {
            "inputs": [
                {
                    "internalType": "address",
                    "name": "to",
                    "type": "address"
                },
                {
                    "internalType": "uint256",
                    "name": "tokenId",
                    "type": "uint256"
                }
            ],
            "name": "approve",
            "outputs": [],
            "stateMutability": "nonpayable",
            "type": "function"
        },
        {
            "inputs": [
                {
                    "internalType": "address",
                    "name": "owner",
                    "type": "address"
                }
            ],
            "name": "balanceOf",
            "outputs": [
                {
                    "internalType": "uint256",
                    "name": "",
                    "type": "uint256"
                }
            ],
            "stateMutability": "view",
            "type": "function"
        },
        {
            "inputs": [
                {
                    "internalType": "uint256",
                    "name": "",
                    "type": "uint256"
                }
            ],
            "name": "boosts",
            "outputs": [
                {
                    "internalType": "uint256",
                    "name": "",
                    "type": "uint256"
                }
            ],
            "stateMutability": "view",
            "type": "function"
        },
        {
            "inputs": [
                {
                    "internalType": "uint256",
                    "name": "donation",
                    "type": "uint256"
                }
            ],
            "name": "donate",
            "outputs": [],
            "stateMutability": "nonpayable",
            "type": "function"
        },
        {
            "inputs": [
                {
                    "internalType": "uint256",
                    "name": "tokenId",
                    "type": "uint256"
                }
            ],
            "name": "getApproved",
            "outputs": [
                {
                    "internalType": "address",
                    "name": "",
                    "type": "address"
                }
            ],
            "stateMutability": "view",
            "type": "function"
        },
        {
            "inputs": [
                {
                    "internalType": "uint256",
                    "name": "currentLevel",
                    "type": "uint256"
                }
            ],
            "name": "getBoostUpgradeCost",
            "outputs": [
                {
                    "internalType": "uint256",
                    "name": "",
                    "type": "uint256"
                }
            ],
            "stateMutability": "pure",
            "type": "function"
        },
        {
            "inputs": [],
            "name": "getBoosts",
            "outputs": [
                {
                    "internalType": "uint256[]",
                    "name": "",
                    "type": "uint256[]"
                }
            ],
            "stateMutability": "view",
            "type": "function"
        },
        {
            "inputs": [],
            "name": "initialize",
            "outputs": [],
            "stateMutability": "nonpayable",
            "type": "function"
        },
        {
            "inputs": [
                {
                    "internalType": "uint256",
                    "name": "characterID",
                    "type": "uint256"
                }
            ],
            "name": "inviteCharacter",
            "outputs": [],
            "stateMutability": "nonpayable",
            "type": "function"
        },
        {
            "inputs": [
                {
                    "internalType": "address",
                    "name": "owner",
                    "type": "address"
                },
                {
                    "internalType": "address",
                    "name": "operator",
                    "type": "address"
                }
            ],
            "name": "isApprovedForAll",
            "outputs": [
                {
                    "internalType": "bool",
                    "name": "",
                    "type": "bool"
                }
            ],
            "stateMutability": "view",
            "type": "function"
        },
        {
            "inputs": [
                {
                    "internalType": "uint256",
                    "name": "characterID",
                    "type": "uint256"
                }
            ],
            "name": "joinGuild",
            "outputs": [],
            "stateMutability": "nonpayable",
            "type": "function"
        },
        {
            "inputs": [
                {
                    "internalType": "uint256",
                    "name": "characterID",
                    "type": "uint256"
                }
            ],
            "name": "kickMember",
            "outputs": [],
            "stateMutability": "nonpayable",
            "type": "function"
        },
        {
            "inputs": [
                {
                    "internalType": "uint256",
                    "name": "characterID",
                    "type": "uint256"
                }
            ],
            "name": "leaveGuild",
            "outputs": [],
            "stateMutability": "nonpayable",
            "type": "function"
        },
        {
            "inputs": [],
            "name": "name",
            "outputs": [
                {
                    "internalType": "string",
                    "name": "",
                    "type": "string"
                }
            ],
            "stateMutability": "view",
            "type": "function"
        },
        {
            "inputs": [],
            "name": "owner",
            "outputs": [
                {
                    "internalType": "address",
                    "name": "",
                    "type": "address"
                }
            ],
            "stateMutability": "view",
            "type": "function"
        },
        {
            "inputs": [
                {
                    "internalType": "uint256",
                    "name": "tokenId",
                    "type": "uint256"
                }
            ],
            "name": "ownerOf",
            "outputs": [
                {
                    "internalType": "address",
                    "name": "",
                    "type": "address"
                }
            ],
            "stateMutability": "view",
            "type": "function"
        },
        {
            "inputs": [],
            "name": "renounceOwnership",
            "outputs": [],
            "stateMutability": "nonpayable",
            "type": "function"
        },
        {
            "inputs": [
                {
                    "internalType": "address",
                    "name": "from",
                    "type": "address"
                },
                {
                    "internalType": "address",
                    "name": "to",
                    "type": "address"
                },
                {
                    "internalType": "uint256",
                    "name": "tokenId",
                    "type": "uint256"
                }
            ],
            "name": "safeTransferFrom",
            "outputs": [],
            "stateMutability": "nonpayable",
            "type": "function"
        },
        {
            "inputs": [
                {
                    "internalType": "address",
                    "name": "from",
                    "type": "address"
                },
                {
                    "internalType": "address",
                    "name": "to",
                    "type": "address"
                },
                {
                    "internalType": "uint256",
                    "name": "tokenId",
                    "type": "uint256"
                },
                {
                    "internalType": "bytes",
                    "name": "_data",
                    "type": "bytes"
                }
            ],
            "name": "safeTransferFrom",
            "outputs": [],
            "stateMutability": "nonpayable",
            "type": "function"
        },
        {
            "inputs": [
                {
                    "internalType": "address",
                    "name": "operator",
                    "type": "address"
                },
                {
                    "internalType": "bool",
                    "name": "approved",
                    "type": "bool"
                }
            ],
            "name": "setApprovalForAll",
            "outputs": [],
            "stateMutability": "nonpayable",
            "type": "function"
        },
        {
            "inputs": [
                {
                    "internalType": "bytes4",
                    "name": "interfaceId",
                    "type": "bytes4"
                }
            ],
            "name": "supportsInterface",
            "outputs": [
                {
                    "internalType": "bool",
                    "name": "",
                    "type": "bool"
                }
            ],
            "stateMutability": "view",
            "type": "function"
        },
        {
            "inputs": [],
            "name": "symbol",
            "outputs": [
                {
                    "internalType": "string",
                    "name": "",
                    "type": "string"
                }
            ],
            "stateMutability": "view",
            "type": "function"
        },
        {
            "inputs": [
                {
                    "internalType": "uint256",
                    "name": "tokenId",
                    "type": "uint256"
                }
            ],
            "name": "tokenURI",
            "outputs": [
                {
                    "internalType": "string",
                    "name": "",
                    "type": "string"
                }
            ],
            "stateMutability": "view",
            "type": "function"
        },
        {
            "inputs": [
                {
                    "internalType": "address",
                    "name": "from",
                    "type": "address"
                },
                {
                    "internalType": "address",
                    "name": "to",
                    "type": "address"
                },
                {
                    "internalType": "uint256",
                    "name": "tokenId",
                    "type": "uint256"
                }
            ],
            "name": "transferFrom",
            "outputs": [],
            "stateMutability": "nonpayable",
            "type": "function"
        },
        {
            "inputs": [
                {
                    "internalType": "address",
                    "name": "newOwner",
                    "type": "address"
                }
            ],
            "name": "transferOwnership",
            "outputs": [],
            "stateMutability": "nonpayable",
            "type": "function"
        },
        {
            "inputs": [
                {
                    "internalType": "uint256",
                    "name": "boostID",
                    "type": "uint256"
                }
            ],
            "name": "upgradeBoost",
            "outputs": [],
            "stateMutability": "nonpayable",
            "type": "function"
        },
        {
            "inputs": [
                {
                    "internalType": "uint256",
                    "name": "amount",
                    "type": "uint256"
                }
            ],
            "name": "withdrawFunds",
            "outputs": [],
            "stateMutability": "nonpayable",
            "type": "function"
        }
    ],
    "bytecode": "60806040523480156200001157600080fd5b50604080518082018252600581526411dd5a5b1960da1b60208083019182528351808501909452600984526811dd5a5b1910d85c9960ba1b9084015281519192916200006091600091620000ef565b50805162000076906001906020840190620000ef565b505050620000936200008d6200009960201b60201c565b6200009d565b620001d1565b3390565b600680546001600160a01b038381166001600160a01b0319831681179093556040519116919082907f8be0079c531659141344cd1fd0a4f28419497f9722a3daafe3b4186f6b6457e090600090a35050565b828054620000fd9062000195565b90600052602060002090601f0160209004810192826200012157600085556200016c565b82601f106200013c57805160ff19168380011785556200016c565b828001600101855582156200016c579182015b828111156200016c5782518255916020019190600101906200014f565b506200017a9291506200017e565b5090565b5b808211156200017a57600081556001016200017f565b600181811c90821680620001aa57607f821691505b602082108103620001cb57634e487b7160e01b600052602260045260246000fd5b50919050565b61225c80620001e16000396000f3fe608060405234801561001057600080fd5b50600436106101a95760003560e01c806373ea5d32116100f9578063b88d4fde11610097578063e7a3917811610071578063e7a3917814610381578063e985e9c514610394578063f14faf6f146103a7578063f2fde38b146103ba57600080fd5b8063b88d4fde14610346578063c10a597c14610359578063c87b56dd1461036e57600080fd5b806395d89b41116100d357806395d89b41146103055780639c3508e51461030d578063a22cb46514610320578063abb12ec61461033357600080fd5b806373ea5d32146102d95780638129fc1c146102ec5780638da5cb5b146102f457600080fd5b806323b872dd116101665780634afd82e7116101405780634afd82e71461028a5780636352211e146102ab57806370a08231146102be578063715018a6146102d157600080fd5b806323b872dd1461025157806334a58aa81461026457806342842e0e1461027757600080fd5b806301586241146101ae57806301ffc9a7146101c357806306fdde03146101eb578063081812fc14610200578063095ea7b31461022b578063155dd5ee1461023e575b600080fd5b6101c16101bc366004611948565b6103cd565b005b6101d66101d1366004611977565b610411565b60405190151581526020015b60405180910390f35b6101f3610463565b6040516101e291906119ec565b61021361020e366004611948565b6104f5565b6040516001600160a01b0390911681526020016101e2565b6101c1610239366004611a14565b61058f565b6101c161024c366004611948565b6106a4565b6101c161025f366004611a40565b610774565b6101c1610272366004611948565b6107a5565b6101c1610285366004611a40565b610937565b61029d610298366004611948565b610952565b6040519081526020016101e2565b6102136102b9366004611948565b610973565b61029d6102cc366004611a81565b6109ea565b6101c1610a71565b6101c16102e7366004611948565b610aa7565b6101c1610c98565b6006546001600160a01b0316610213565b6101f3610ccf565b6101c161031b366004611948565b610cde565b6101c161032e366004611aac565b610dbe565b6101c1610341366004611948565b610dcd565b6101c1610354366004611b7e565b610e30565b610361610e68565b6040516101e29190611c2d565b6101f361037c366004611948565b610ebf565b61029d61038f366004611948565b610fa7565b6101d66103a2366004611c71565b610fc0565b6101c16103b5366004611948565b610fee565b6101c16103c8366004611a81565b61109a565b6103d6336109ea565b6000036103f65760405163148fe22160e11b815260040160405180910390fd5b6000908152600c60205260409020805460ff19166001179055565b60006001600160e01b031982166380ac58cd60e01b148061044257506001600160e01b03198216635b5e139f60e01b145b8061045d57506301ffc9a760e01b6001600160e01b03198316145b92915050565b60606000805461047290611c9f565b80601f016020809104026020016040519081016040528092919081815260200182805461049e90611c9f565b80156104eb5780601f106104c0576101008083540402835291602001916104eb565b820191906000526020600020905b8154815290600101906020018083116104ce57829003601f168201915b5050505050905090565b6000818152600260205260408120546001600160a01b03166105735760405162461bcd60e51b815260206004820152602c60248201527f4552433732313a20617070726f76656420717565727920666f72206e6f6e657860448201526b34b9ba32b73a103a37b5b2b760a11b60648201526084015b60405180910390fd5b506000908152600460205260409020546001600160a01b031690565b600061059a82610973565b9050806001600160a01b0316836001600160a01b0316036106075760405162461bcd60e51b815260206004820152602160248201527f4552433732313a20617070726f76616c20746f2063757272656e74206f776e656044820152603960f91b606482015260840161056a565b336001600160a01b038216148061062357506106238133610fc0565b6106955760405162461bcd60e51b815260206004820152603860248201527f4552433732313a20617070726f76652063616c6c6572206973206e6f74206f7760448201527f6e6572206e6f7220617070726f76656420666f7220616c6c0000000000000000606482015260840161056a565b61069f8383611135565b505050565b6006546001600160a01b031633146106ce5760405162461bcd60e51b815260040161056a90611cd9565b60075460405163a9059cbb60e01b8152336004820152602481018390526001600160a01b039091169063a9059cbb906044016020604051808303816000875af115801561071f573d6000803e3d6000fd5b505050506040513d601f19601f820116820180604052508101906107439190611d0e565b50604051819033907fc0106afed11d38071b121ebe45e2c12d1d8e7b0f333edfed6710a9dc543481c690600090a350565b61077e33826111a3565b61079a5760405162461bcd60e51b815260040161056a90611d2b565b61069f83838361127a565b6000600e82815481106107ba576107ba611d7c565b9060005260206000200154905060006107d282610fa7565b6007546040516370a0823160e01b815230600482015291925082916001600160a01b03909116906370a0823190602401602060405180830381865afa15801561081f573d6000803e3d6000fd5b505050506040513d601f19601f820116820180604052508101906108439190611d92565b10156108855760405162461bcd60e51b8152602060048201526011602482015270496e73756666696369656e742047656d7360781b604482015260640161056a565b60075460405163079cc67960e41b8152306004820152602481018390526001600160a01b03909116906379cc679090604401600060405180830381600087803b1580156108d157600080fd5b505af11580156108e5573d6000803e3d6000fd5b50505050600e83815481106108fc576108fc611d7c565b906000526020600020015460016109139190611dc1565b600e848154811061092657610926611d7c565b600091825260209091200155505050565b61069f83838360405180602001604052806000815250610e30565b600e818154811061096257600080fd5b600091825260209091200154905081565b6000818152600260205260408120546001600160a01b03168061045d5760405162461bcd60e51b815260206004820152602960248201527f4552433732313a206f776e657220717565727920666f72206e6f6e657869737460448201526832b73a103a37b5b2b760b91b606482015260840161056a565b60006001600160a01b038216610a555760405162461bcd60e51b815260206004820152602a60248201527f4552433732313a2062616c616e636520717565727920666f7220746865207a65604482015269726f206164647265737360b01b606482015260840161056a565b506001600160a01b031660009081526003602052604090205490565b6006546001600160a01b03163314610a9b5760405162461bcd60e51b815260040161056a90611cd9565b610aa56000611416565b565b600b5460405163dabb053160e01b815260048101839052600091630100000090046001600160a01b03169063dabb053190602401600060405180830381865afa158015610af8573d6000803e3d6000fd5b505050506040513d6000823e601f3d908101601f19168201604052610b209190810190611e91565b80519091506001600160a01b03163314610b4d5760405163396eeb4360e21b815260040160405180910390fd5b600b5462010000900460ff1615156001148015610b7957506000828152600c602052604090205460ff16155b15610b975760405163779a6f4160e01b815260040160405180910390fd5b600b54610100900460ff1615610c4f57600b5460405163dabb053160e01b81526004810184905263010000009091046001600160a01b03169063dabb053190602401600060405180830381865afa925050508015610c1757506040513d6000823e601f3d908101601f19168201604052610c149190810190611e91565b60015b610c2057600080fd5b600954816060015163ffffffff161015610c4d5760405163194b7e1160e21b815260040160405180910390fd5b505b610c593383611468565b6000828152600d602052604080822042905551839133917f7f3b9effe05cfb4f31f854004de03199fd03fe56bf38a48b2aa9a9f4402d6e239190a35050565b600b5460ff161515600103610cc0576040516302ed543d60e51b815260040160405180910390fd5b610cc93361109a565b600a8055565b60606001805461047290611c9f565b600b5460405163dabb053160e01b815260048101839052600091630100000090046001600160a01b03169063dabb053190602401600060405180830381865afa158015610d2f573d6000803e3d6000fd5b505050506040513d6000823e601f3d908101601f19168201604052610d579190810190611e91565b80519091506001600160a01b03163314610d845760405163396eeb4360e21b815260040160405180910390fd5b610d8d826115aa565b604051829033907f9346ee3b9c76468ddd2fdbfb65dae9da6e2479083b25cd80377d6809f6f8c69d90600090a35050565b610dc9338383611645565b5050565b6006546001600160a01b03163314610df75760405162461bcd60e51b815260040161056a90611cd9565b610e00816115aa565b604051819033907f9346ee3b9c76468ddd2fdbfb65dae9da6e2479083b25cd80377d6809f6f8c69d90600090a350565b610e3a33836111a3565b610e565760405162461bcd60e51b815260040161056a90611d2b565b610e6284848484611713565b50505050565b6060600e8054806020026020016040519081016040528092919081815260200182805480156104eb57602002820191906000526020600020905b815481526020019060010190808311610ea2575050505050905090565b6000818152600260205260409020546060906001600160a01b0316610f3e5760405162461bcd60e51b815260206004820152602f60248201527f4552433732314d657461646174613a2055524920717565727920666f72206e6f60448201526e3732bc34b9ba32b73a103a37b5b2b760891b606482015260840161056a565b6000610f5560408051602081019091526000815290565b90506000815111610f755760405180602001604052806000815250610fa0565b80610f7f84611746565b604051602001610f90929190611fea565b6040516020818303038152906040525b9392505050565b6000610fb46005836120fd565b61045d90614e20611dc1565b6001600160a01b03918216600090815260056020908152604080832093909416825291909152205460ff1690565b6007546040516323b872dd60e01b8152336004820152306024820152604481018390526001600160a01b03909116906323b872dd906064016020604051808303816000875af1158015611045573d6000803e3d6000fd5b505050506040513d601f19601f820116820180604052508101906110699190611d0e565b50604051819033907f5d8bc849764969eb1bcc6d0a2f55999d0167c1ccec240a4f39cf664ca9c4148e90600090a350565b6006546001600160a01b031633146110c45760405162461bcd60e51b815260040161056a90611cd9565b6001600160a01b0381166111295760405162461bcd60e51b815260206004820152602660248201527f4f776e61626c653a206e6577206f776e657220697320746865207a65726f206160448201526564647265737360d01b606482015260840161056a565b61113281611416565b50565b600081815260046020526040902080546001600160a01b0319166001600160a01b038416908117909155819061116a82610973565b6001600160a01b03167f8c5be1e5ebec7d5bd14f71427d1e84f3dd0314c0f7b2291e5b200ac8c7c3b92560405160405180910390a45050565b6000818152600260205260408120546001600160a01b031661121c5760405162461bcd60e51b815260206004820152602c60248201527f4552433732313a206f70657261746f7220717565727920666f72206e6f6e657860448201526b34b9ba32b73a103a37b5b2b760a11b606482015260840161056a565b600061122783610973565b9050806001600160a01b0316846001600160a01b0316148061124e575061124e8185610fc0565b806112725750836001600160a01b0316611267846104f5565b6001600160a01b0316145b949350505050565b826001600160a01b031661128d82610973565b6001600160a01b0316146112f15760405162461bcd60e51b815260206004820152602560248201527f4552433732313a207472616e736665722066726f6d20696e636f72726563742060448201526437bbb732b960d91b606482015260840161056a565b6001600160a01b0382166113535760405162461bcd60e51b8152602060048201526024808201527f4552433732313a207472616e7366657220746f20746865207a65726f206164646044820152637265737360e01b606482015260840161056a565b61135e600082611135565b6001600160a01b038316600090815260036020526040812080546001929061138790849061210c565b90915550506001600160a01b03821660009081526003602052604081208054600192906113b5908490611dc1565b909155505060008181526002602052604080822080546001600160a01b0319166001600160a01b0386811691821790925591518493918716917fddf252ad1be2c89b69c2b068fc378daa952ba7f163c4a11628f55a4df523b3ef91a4505050565b600680546001600160a01b038381166001600160a01b0319831681179093556040519116919082907f8be0079c531659141344cd1fd0a4f28419497f9722a3daafe3b4186f6b6457e090600090a35050565b6001600160a01b0382166114be5760405162461bcd60e51b815260206004820181905260248201527f4552433732313a206d696e7420746f20746865207a65726f2061646472657373604482015260640161056a565b6000818152600260205260409020546001600160a01b0316156115235760405162461bcd60e51b815260206004820152601c60248201527f4552433732313a20746f6b656e20616c7265616479206d696e74656400000000604482015260640161056a565b6001600160a01b038216600090815260036020526040812080546001929061154c908490611dc1565b909155505060008181526002602052604080822080546001600160a01b0319166001600160a01b03861690811790915590518392907fddf252ad1be2c89b69c2b068fc378daa952ba7f163c4a11628f55a4df523b3ef908290a45050565b60006115b582610973565b90506115c2600083611135565b6001600160a01b03811660009081526003602052604081208054600192906115eb90849061210c565b909155505060008281526002602052604080822080546001600160a01b0319169055518391906001600160a01b038416907fddf252ad1be2c89b69c2b068fc378daa952ba7f163c4a11628f55a4df523b3ef908390a45050565b816001600160a01b0316836001600160a01b0316036116a65760405162461bcd60e51b815260206004820152601960248201527f4552433732313a20617070726f766520746f2063616c6c657200000000000000604482015260640161056a565b6001600160a01b03838116600081815260056020908152604080832094871680845294825291829020805460ff191686151590811790915591519182527f17307eab39ab6107e8899845ad3d59bd9653f200f220920489ca2b5937696c31910160405180910390a3505050565b61171e84848461127a565b61172a84848484611847565b610e625760405162461bcd60e51b815260040161056a90612123565b60608160000361176d5750506040805180820190915260018152600360fc1b602082015290565b8160005b8115611797578061178181612175565b91506117909050600a836121a4565b9150611771565b60008167ffffffffffffffff8111156117b2576117b2611ae5565b6040519080825280601f01601f1916602001820160405280156117dc576020820181803683370190505b5090505b8415611272576117f160018361210c565b91506117fe600a866121b8565b611809906030611dc1565b60f81b81838151811061181e5761181e611d7c565b60200101906001600160f81b031916908160001a905350611840600a866121a4565b94506117e0565b60006001600160a01b0384163b1561193d57604051630a85bd0160e11b81526001600160a01b0385169063150b7a029061188b9033908990889088906004016121cc565b6020604051808303816000875af19250505080156118c6575060408051601f3d908101601f191682019092526118c391810190612209565b60015b611923573d8080156118f4576040519150601f19603f3d011682016040523d82523d6000602084013e6118f9565b606091505b50805160000361191b5760405162461bcd60e51b815260040161056a90612123565b805181602001fd5b6001600160e01b031916630a85bd0160e11b149050611272565b506001949350505050565b60006020828403121561195a57600080fd5b5035919050565b6001600160e01b03198116811461113257600080fd5b60006020828403121561198957600080fd5b8135610fa081611961565b60005b838110156119af578181015183820152602001611997565b83811115610e625750506000910152565b600081518084526119d8816020860160208601611994565b601f01601f19169290920160200192915050565b602081526000610fa060208301846119c0565b6001600160a01b038116811461113257600080fd5b60008060408385031215611a2757600080fd5b8235611a32816119ff565b946020939093013593505050565b600080600060608486031215611a5557600080fd5b8335611a60816119ff565b92506020840135611a70816119ff565b929592945050506040919091013590565b600060208284031215611a9357600080fd5b8135610fa0816119ff565b801515811461113257600080fd5b60008060408385031215611abf57600080fd5b8235611aca816119ff565b91506020830135611ada81611a9e565b809150509250929050565b634e487b7160e01b600052604160045260246000fd5b6040516101c0810167ffffffffffffffff81118282101715611b1f57611b1f611ae5565b60405290565b604051601f8201601f1916810167ffffffffffffffff81118282101715611b4e57611b4e611ae5565b604052919050565b600067ffffffffffffffff821115611b7057611b70611ae5565b50601f01601f191660200190565b60008060008060808587031215611b9457600080fd5b8435611b9f816119ff565b93506020850135611baf816119ff565b925060408501359150606085013567ffffffffffffffff811115611bd257600080fd5b8501601f81018713611be357600080fd5b8035611bf6611bf182611b56565b611b25565b818152886020838501011115611c0b57600080fd5b8160208401602083013760006020838301015280935050505092959194509250565b6020808252825182820181905260009190848201906040850190845b81811015611c6557835183529284019291840191600101611c49565b50909695505050505050565b60008060408385031215611c8457600080fd5b8235611c8f816119ff565b91506020830135611ada816119ff565b600181811c90821680611cb357607f821691505b602082108103611cd357634e487b7160e01b600052602260045260246000fd5b50919050565b6020808252818101527f4f776e61626c653a2063616c6c6572206973206e6f7420746865206f776e6572604082015260600190565b600060208284031215611d2057600080fd5b8151610fa081611a9e565b60208082526031908201527f4552433732313a207472616e736665722063616c6c6572206973206e6f74206f6040820152701ddb995c881b9bdc88185c1c1c9bdd9959607a1b606082015260800190565b634e487b7160e01b600052603260045260246000fd5b600060208284031215611da457600080fd5b5051919050565b634e487b7160e01b600052601160045260246000fd5b60008219821115611dd457611dd4611dab565b500190565b8051611de4816119ff565b919050565b600082601f830112611dfa57600080fd5b8151611e08611bf182611b56565b818152846020838601011115611e1d57600080fd5b611272826020830160208701611994565b805163ffffffff81168114611de457600080fd5b600060408284031215611e5457600080fd5b6040516040810181811067ffffffffffffffff82111715611e7757611e77611ae5565b604052825181526020928301519281019290925250919050565b600060208284031215611ea357600080fd5b815167ffffffffffffffff80821115611ebb57600080fd5b908301906102408286031215611ed057600080fd5b611ed8611afb565b611ee183611dd9565b8152602083015182811115611ef557600080fd5b611f0187828601611de9565b60208301525060408301516040820152611f1d60608401611e2e565b6060820152611f2f8660808501611e42565b6080820152611f418660c08501611e42565b60a08201526101009150611f5786838501611e42565b60c0820152610140611f6b87828601611e42565b60e0830152610180611f7e818601611e2e565b848401526101a09350611f92848601611e2e565b610120840152611fa56101c08601611e2e565b82840152611fb66101e08601611e2e565b610160840152611fc96102008601611e2e565b9083015250611fdb6102208401611e2e565b91810191909152949350505050565b60008351611ffc818460208801611994565b835190830190612010818360208801611994565b01949350505050565b600181815b8085111561205457816000190482111561203a5761203a611dab565b8085161561204757918102915b93841c939080029061201e565b509250929050565b60008261206b5750600161045d565b816120785750600061045d565b816001811461208e5760028114612098576120b4565b600191505061045d565b60ff8411156120a9576120a9611dab565b50506001821b61045d565b5060208310610133831016604e8410600b84101617156120d7575081810a61045d565b6120e18383612019565b80600019048211156120f5576120f5611dab565b029392505050565b6000610fa060ff84168361205c565b60008282101561211e5761211e611dab565b500390565b60208082526032908201527f4552433732313a207472616e7366657220746f206e6f6e20455243373231526560408201527131b2b4bb32b91034b6b83632b6b2b73a32b960711b606082015260800190565b60006001820161218757612187611dab565b5060010190565b634e487b7160e01b600052601260045260246000fd5b6000826121b3576121b361218e565b500490565b6000826121c7576121c761218e565b500690565b6001600160a01b03858116825284166020820152604081018390526080606082018190526000906121ff908301846119c0565b9695505050505050565b60006020828403121561221b57600080fd5b8151610fa08161196156fea2646970667358221220522fb6957c3ecc7fef6feb86d0b2ecd9c98a3c1f48ad3801a6539ee8f27daf5964736f6c634300080d0033",
    "sourcePath": "/Users/kmo/github/Game/contracts/Guild.sol",
    "compiler": {
        "name": "solc",
        "version": "0.8.13+commit.abaa5c0e"
    },
    "functionHashes": {
        "approve(address,uint256)": "095ea7b3",
        "balanceOf(address)": "70a08231",
        "boosts(uint256)": "4afd82e7",
        "donate(uint256)": "f14faf6f",
        "getApproved(uint256)": "081812fc",
        "getBoostUpgradeCost(uint256)": "e7a39178",
        "getBoosts()": "c10a597c",
        "initialize()": "8129fc1c",
        "inviteCharacter(uint256)": "01586241",
        "isApprovedForAll(address,address)": "e985e9c5",
        "joinGuild(uint256)": "73ea5d32",
        "kickMember(uint256)": "abb12ec6",
        "leaveGuild(uint256)": "9c3508e5",
        "name()": "06fdde03",
        "owner()": "8da5cb5b",
        "ownerOf(uint256)": "6352211e",
        "renounceOwnership()": "715018a6",
        "safeTransferFrom(address,address,uint256)": "42842e0e",
        "safeTransferFrom(address,address,uint256,bytes)": "b88d4fde",
        "setApprovalForAll(address,bool)": "a22cb465",
        "supportsInterface(bytes4)": "01ffc9a7",
        "symbol()": "95d89b41",
        "tokenURI(uint256)": "c87b56dd",
        "transferFrom(address,address,uint256)": "23b872dd",
        "transferOwnership(address)": "f2fde38b",
        "upgradeBoost(uint256)": "34a58aa8",
        "withdrawFunds(uint256)": "155dd5ee"
    },
    "gasEstimates": {
        "creation": {
            "codeDepositCost": "1759200",
            "executionCost": "infinite",
            "totalCost": "infinite"
        },
        "external": {
            "approve(address,uint256)": "infinite",
            "balanceOf(address)": "2672",
            "boosts(uint256)": "4620",
            "donate(uint256)": "infinite",
            "getApproved(uint256)": "4782",
            "getBoostUpgradeCost(uint256)": "infinite",
            "getBoosts()": "infinite",
            "initialize()": "52489",
            "inviteCharacter(uint256)": "26811",
            "isApprovedForAll(address,address)": "infinite",
            "joinGuild(uint256)": "infinite",
            "kickMember(uint256)": "infinite",
            "leaveGuild(uint256)": "infinite",
            "name()": "infinite",
            "owner()": "2421",
            "ownerOf(uint256)": "2623",
            "renounceOwnership()": "28228",
            "safeTransferFrom(address,address,uint256)": "infinite",
            "safeTransferFrom(address,address,uint256,bytes)": "infinite",
            "setApprovalForAll(address,bool)": "infinite",
            "supportsInterface(bytes4)": "556",
            "symbol()": "infinite",
            "tokenURI(uint256)": "infinite",
            "transferFrom(address,address,uint256)": "infinite",
            "transferOwnership(address)": "infinite",
            "upgradeBoost(uint256)": "infinite",
            "withdrawFunds(uint256)": "infinite"
        }
    }
}