{
    "contractName": "Marketplace",
    "abi": [
        {
            "inputs": [
                {
                    "internalType": "address",
                    "name": "_equipment",
                    "type": "address"
                },
                {
                    "internalType": "address",
                    "name": "_coin",
                    "type": "address"
                }
            ],
            "stateMutability": "nonpayable",
            "type": "constructor"
        },
        {
            "inputs": [],
            "name": "CannotRemoveMasterOperator",
            "type": "error"
        },
        {
            "inputs": [],
            "name": "InsufficientPayment",
            "type": "error"
        },
        {
            "inputs": [],
            "name": "InsufficientPrivileges",
            "type": "error"
        },
        {
            "inputs": [],
            "name": "ItemDoesNotExist",
            "type": "error"
        },
        {
            "inputs": [],
            "name": "NotMasterOperator",
            "type": "error"
        },
        {
            "inputs": [],
            "name": "NotOperator",
            "type": "error"
        },
        {
            "inputs": [],
            "name": "NotOwner",
            "type": "error"
        },
        {
            "anonymous": false,
            "inputs": [
                {
                    "indexed": true,
                    "internalType": "uint256",
                    "name": "tokenId",
                    "type": "uint256"
                },
                {
                    "indexed": true,
                    "internalType": "address",
                    "name": "buyer",
                    "type": "address"
                },
                {
                    "indexed": true,
                    "internalType": "uint256",
                    "name": "price",
                    "type": "uint256"
                }
            ],
            "name": "ItemSold",
            "type": "event"
        },
        {
            "anonymous": false,
            "inputs": [
                {
                    "indexed": true,
                    "internalType": "uint256",
                    "name": "tokenId",
                    "type": "uint256"
                },
                {
                    "indexed": true,
                    "internalType": "address",
                    "name": "owner",
                    "type": "address"
                }
            ],
            "name": "ListingRemoved",
            "type": "event"
        },
        {
            "anonymous": false,
            "inputs": [
                {
                    "indexed": true,
                    "internalType": "address",
                    "name": "operator",
                    "type": "address"
                }
            ],
            "name": "MasterOperatorChanged",
            "type": "event"
        },
        {
            "anonymous": false,
            "inputs": [
                {
                    "indexed": true,
                    "internalType": "uint256",
                    "name": "tokenId",
                    "type": "uint256"
                },
                {
                    "indexed": true,
                    "internalType": "address",
                    "name": "owner",
                    "type": "address"
                },
                {
                    "indexed": true,
                    "internalType": "uint256",
                    "name": "price",
                    "type": "uint256"
                }
            ],
            "name": "NewListing",
            "type": "event"
        },
        {
            "anonymous": false,
            "inputs": [
                {
                    "indexed": true,
                    "internalType": "address",
                    "name": "operator",
                    "type": "address"
                }
            ],
            "name": "OperatorAdded",
            "type": "event"
        },
        {
            "anonymous": false,
            "inputs": [
                {
                    "indexed": true,
                    "internalType": "address",
                    "name": "operator",
                    "type": "address"
                }
            ],
            "name": "OperatorRemoved",
            "type": "event"
        },
        {
            "inputs": [
                {
                    "internalType": "address",
                    "name": "operator",
                    "type": "address"
                }
            ],
            "name": "addOperator",
            "outputs": [],
            "stateMutability": "nonpayable",
            "type": "function"
        },
        {
            "inputs": [
                {
                    "internalType": "uint256",
                    "name": "id",
                    "type": "uint256"
                }
            ],
            "name": "buy",
            "outputs": [],
            "stateMutability": "payable",
            "type": "function"
        },
        {
            "inputs": [],
            "name": "coin",
            "outputs": [
                {
                    "internalType": "address",
                    "name": "",
                    "type": "address"
                }
            ],
            "stateMutability": "view",
            "type": "function"
        },
        {
            "inputs": [],
            "name": "equipment",
            "outputs": [
                {
                    "internalType": "address",
                    "name": "",
                    "type": "address"
                }
            ],
            "stateMutability": "view",
            "type": "function"
        },
        {
            "inputs": [],
            "name": "fee",
            "outputs": [
                {
                    "internalType": "uint256",
                    "name": "",
                    "type": "uint256"
                }
            ],
            "stateMutability": "view",
            "type": "function"
        },
        {
            "inputs": [],
            "name": "getListings",
            "outputs": [
                {
                    "components": [
                        {
                            "internalType": "address",
                            "name": "owner",
                            "type": "address"
                        },
                        {
                            "internalType": "uint256",
                            "name": "id",
                            "type": "uint256"
                        },
                        {
                            "internalType": "uint256",
                            "name": "price",
                            "type": "uint256"
                        }
                    ],
                    "internalType": "struct Marketplace.Listing[]",
                    "name": "",
                    "type": "tuple[]"
                }
            ],
            "stateMutability": "view",
            "type": "function"
        },
        {
            "inputs": [
                {
                    "internalType": "uint256",
                    "name": "id",
                    "type": "uint256"
                },
                {
                    "internalType": "uint256",
                    "name": "price",
                    "type": "uint256"
                }
            ],
            "name": "listItem",
            "outputs": [],
            "stateMutability": "nonpayable",
            "type": "function"
        },
        {
            "inputs": [
                {
                    "internalType": "uint256",
                    "name": "",
                    "type": "uint256"
                }
            ],
            "name": "listings",
            "outputs": [
                {
                    "internalType": "address",
                    "name": "owner",
                    "type": "address"
                },
                {
                    "internalType": "uint256",
                    "name": "id",
                    "type": "uint256"
                },
                {
                    "internalType": "uint256",
                    "name": "price",
                    "type": "uint256"
                }
            ],
            "stateMutability": "view",
            "type": "function"
        },
        {
            "inputs": [],
            "name": "masterOperator",
            "outputs": [
                {
                    "internalType": "address",
                    "name": "",
                    "type": "address"
                }
            ],
            "stateMutability": "view",
            "type": "function"
        },
        {
            "inputs": [
                {
                    "internalType": "address",
                    "name": "",
                    "type": "address"
                }
            ],
            "name": "operators",
            "outputs": [
                {
                    "internalType": "bool",
                    "name": "",
                    "type": "bool"
                }
            ],
            "stateMutability": "view",
            "type": "function"
        },
        {
            "inputs": [],
            "name": "operatorsCanWrite",
            "outputs": [
                {
                    "internalType": "bool",
                    "name": "",
                    "type": "bool"
                }
            ],
            "stateMutability": "view",
            "type": "function"
        },
        {
            "inputs": [],
            "name": "relinquishOwnership",
            "outputs": [],
            "stateMutability": "nonpayable",
            "type": "function"
        },
        {
            "inputs": [
                {
                    "internalType": "uint256",
                    "name": "id",
                    "type": "uint256"
                }
            ],
            "name": "remove",
            "outputs": [],
            "stateMutability": "nonpayable",
            "type": "function"
        },
        {
            "inputs": [
                {
                    "internalType": "address",
                    "name": "operator",
                    "type": "address"
                }
            ],
            "name": "removeOperator",
            "outputs": [],
            "stateMutability": "nonpayable",
            "type": "function"
        },
        {
            "inputs": [
                {
                    "internalType": "address",
                    "name": "operator",
                    "type": "address"
                }
            ],
            "name": "transferMasterOperator",
            "outputs": [],
            "stateMutability": "nonpayable",
            "type": "function"
        },
        {
            "inputs": [],
            "name": "withdraw",
            "outputs": [],
            "stateMutability": "nonpayable",
            "type": "function"
        }
    ],
    "bytecode": "60806040526002805460ff1916905560fa60035534801561001f57600080fd5b50604051610ed6380380610ed683398101604081905261003e916100b0565b60008054336001600160a01b0319918216811783558252600160208190526040909220805460ff19169092179091556004805482166001600160a01b0394851617905560058054909116919092161790556100e3565b80516001600160a01b03811681146100ab57600080fd5b919050565b600080604083850312156100c357600080fd5b6100cc83610094565b91506100da60208401610094565b90509250929050565b610de4806100f26000396000f3fe6080604052600436106100f35760003560e01c80638a5fc36d1161008a578063d96a094a11610059578063d96a094a146102a2578063ddca3f43146102b5578063de74e57b146102d9578063f1b2d6a31461034457600080fd5b80638a5fc36d1461022d5780639870d7fe1461024d578063ac8a584a1461026d578063c587396b1461028d57600080fd5b8063427e7104116100c6578063427e7104146101ad5780634cc82215146101cd57806374c9f2a3146101ed578063883efa671461020d57600080fd5b806311df9995146100f857806313e7c9d8146101355780631a5cb6a4146101755780633ccfd60b14610196575b600080fd5b34801561010457600080fd5b50600554610118906001600160a01b031681565b6040516001600160a01b0390911681526020015b60405180910390f35b34801561014157600080fd5b50610165610150366004610b70565b60016020526000908152604090205460ff1681565b604051901515815260200161012c565b34801561018157600080fd5b5060005461016590600160a01b900460ff1681565b3480156101a257600080fd5b506101ab610366565b005b3480156101b957600080fd5b50600054610118906001600160a01b031681565b3480156101d957600080fd5b506101ab6101e8366004610ba0565b6103c9565b3480156101f957600080fd5b50600454610118906001600160a01b031681565b34801561021957600080fd5b506101ab610228366004610bb9565b6104c2565b34801561023957600080fd5b506101ab610248366004610b70565b6105b3565b34801561025957600080fd5b506101ab610268366004610b70565b610626565b34801561027957600080fd5b506101ab610288366004610b70565b6106ec565b34801561029957600080fd5b506101ab6107da565b6101ab6102b0366004610ba0565b61083f565b3480156102c157600080fd5b506102cb60035481565b60405190815260200161012c565b3480156102e557600080fd5b5061031f6102f4366004610ba0565b6006602052600090815260409020805460018201546002909201546001600160a01b03909116919083565b604080516001600160a01b03909416845260208401929092529082015260600161012c565b34801561035057600080fd5b506103596109c8565b60405161012c9190610bdb565b3360009081526001602052604081205460ff161515900361039a57604051631f0853c160e21b815260040160405180910390fd5b60405133904780156108fc02916000818181858888f193505050501580156103c6573d6000803e3d6000fd5b50565b600081815260066020526040902080546001600160a01b03163314610401576040516330cd747160e01b815260040160405180910390fd5b600480546040516323b872dd60e01b81523092810192909252336024830152604482018490526001600160a01b0316906323b872dd90606401600060405180830381600087803b15801561045457600080fd5b505af1158015610468573d6000803e3d6000fd5b50505060008381526006602052604080822080546001600160a01b0319168155600181018390556002018290555133925084917f58b0852506006c4be6c7ae72afcd195d9e64d7f5d8947905e914b778e47b7cf391a35050565b600480546040516323b872dd60e01b81523392810192909252306024830152604482018490526001600160a01b0316906323b872dd90606401600060405180830381600087803b15801561051557600080fd5b505af1158015610529573d6000803e3d6000fd5b50506040805160608101825233808252602080830188815283850188815260008a81526006909352858320945185546001600160a01b0319166001600160a01b039091161785559051600185015551600290930192909255915185945091925085917fda5118e11956b6ccec7a349074d6efada2b70b987d2eabba029de60d8f67b1aa9190a45050565b6000546001600160a01b031633146105de57604051632a20a40b60e01b815260040160405180910390fd5b600080546001600160a01b0319166001600160a01b038316908117825560405190917f88a3e6c8d79bb93f797c7b43abeda15c1b46045f72356c83c1cbdc1e09add4b791a250565b3360009081526001602052604081205460ff161515900361065a57604051631f0853c160e21b815260040160405180910390fd5b600054600160a01b900460ff1615801561067f57506000546001600160a01b03163314155b1561069d57604051639bf6d7c560e01b815260040160405180910390fd5b6001600160a01b0381166000818152600160208190526040808320805460ff1916909217909155517fac6fa858e9350a46cec16539926e0fde25b7629f84b5a72bffaae4df888ae86d9190a250565b3360009081526001602052604081205460ff161515900361072057604051631f0853c160e21b815260040160405180910390fd5b6000546001600160a01b0380831691160361074e57604051632f7d8a4760e21b815260040160405180910390fd5b600054600160a01b900460ff1615801561077357506000546001600160a01b03163314155b1561079157604051639bf6d7c560e01b815260040160405180910390fd5b6001600160a01b038116600081815260016020526040808220805460ff19169055517f80c0b871b97b595b16a7741c1b06fed0c6f6f558639f18ccbce50724325dc40d9190a250565b6000546001600160a01b0316331461080557604051632a20a40b60e01b815260040160405180910390fd5b600080546001600160a01b03191681556040517f88a3e6c8d79bb93f797c7b43abeda15c1b46045f72356c83c1cbdc1e09add4b7908290a2565b600081815260066020526040902060028101543410156108725760405163cd1c886760e01b815260040160405180910390fd5b80546001600160a01b031661089a57604051639a749d8160e01b815260040160405180910390fd5b600480546040516323b872dd60e01b81523092810192909252336024830152604482018490526001600160a01b0316906323b872dd90606401600060405180830381600087803b1580156108ed57600080fd5b505af1158015610901573d6000803e3d6000fd5b505082546003546001600160a01b0390911692506108fc9150612710906109289082610c53565b84600201546109379190610c6a565b6109419190610c89565b6040518115909202916000818181858888f19350505050158015610969573d6000803e3d6000fd5b5060008281526006602052604080822080546001600160a01b031916815560018101839055600290810183905583015490519091339185917fa574c741071bb18f51fa88c17aeefec514bebf670ca22a3736fba6504ecbb76391a45050565b60048054604051632118854760e21b815230928101929092526060916000916001600160a01b031690638462151c90602401600060405180830381865afa158015610a17573d6000803e3d6000fd5b505050506040513d6000823e601f3d908101601f19168201604052610a3f9190810190610cc1565b9050610a4a81610a50565b91505090565b60606000825167ffffffffffffffff811115610a6e57610a6e610cab565b604051908082528060200260200182016040528015610acc57816020015b610ab9604051806060016040528060006001600160a01b0316815260200160008152602001600081525090565b815260200190600190039081610a8c5790505b50905060005b8351811015610b695760066000858381518110610af157610af1610d7f565b6020908102919091018101518252818101929092526040908101600020815160608101835281546001600160a01b0316815260018201549381019390935260020154908201528251839083908110610b4b57610b4b610d7f565b60200260200101819052508080610b6190610d95565b915050610ad2565b5092915050565b600060208284031215610b8257600080fd5b81356001600160a01b0381168114610b9957600080fd5b9392505050565b600060208284031215610bb257600080fd5b5035919050565b60008060408385031215610bcc57600080fd5b50508035926020909101359150565b602080825282518282018190526000919060409081850190868401855b82811015610c3057815180516001600160a01b0316855286810151878601528501518585015260609093019290850190600101610bf8565b5091979650505050505050565b634e487b7160e01b600052601160045260246000fd5b600082821015610c6557610c65610c3d565b500390565b6000816000190483118215151615610c8457610c84610c3d565b500290565b600082610ca657634e487b7160e01b600052601260045260246000fd5b500490565b634e487b7160e01b600052604160045260246000fd5b60006020808385031215610cd457600080fd5b825167ffffffffffffffff80821115610cec57600080fd5b818501915085601f830112610d0057600080fd5b815181811115610d1257610d12610cab565b8060051b604051601f19603f83011681018181108582111715610d3757610d37610cab565b604052918252848201925083810185019188831115610d5557600080fd5b938501935b82851015610d7357845184529385019392850192610d5a565b98975050505050505050565b634e487b7160e01b600052603260045260246000fd5b600060018201610da757610da7610c3d565b506001019056fea2646970667358221220aef6011fd8531a78b9f467ee3c87261db592fbc1514f42d30b4f26e96770ff9f64736f6c634300080d0033",
    "sourcePath": "/Users/kmo/github/Game/contracts/Market.sol",
    "compiler": {
        "name": "solc",
        "version": "0.8.13+commit.abaa5c0e"
    },
    "functionHashes": {
        "addOperator(address)": "9870d7fe",
        "buy(uint256)": "d96a094a",
        "coin()": "11df9995",
        "equipment()": "74c9f2a3",
        "fee()": "ddca3f43",
        "getListings()": "f1b2d6a3",
        "listItem(uint256,uint256)": "883efa67",
        "listings(uint256)": "de74e57b",
        "masterOperator()": "427e7104",
        "operators(address)": "13e7c9d8",
        "operatorsCanWrite()": "1a5cb6a4",
        "relinquishOwnership()": "c587396b",
        "remove(uint256)": "4cc82215",
        "removeOperator(address)": "ac8a584a",
        "transferMasterOperator(address)": "8a5fc36d",
        "withdraw()": "3ccfd60b"
    },
    "gasEstimates": {
        "creation": {
            "codeDepositCost": "711200",
            "executionCost": "infinite",
            "totalCost": "infinite"
        },
        "external": {
            "addOperator(address)": "32277",
            "buy(uint256)": "infinite",
            "coin()": "2350",
            "equipment()": "2393",
            "fee()": "2339",
            "getListings()": "infinite",
            "listItem(uint256,uint256)": "infinite",
            "listings(uint256)": "6821",
            "masterOperator()": "2349",
            "operators(address)": "2542",
            "operatorsCanWrite()": "2395",
            "relinquishOwnership()": "27746",
            "remove(uint256)": "infinite",
            "removeOperator(address)": "34431",
            "transferMasterOperator(address)": "27835",
            "withdraw()": "infinite"
        },
        "internal": {
            "_getListingsFromIds(uint256[] memory)": "infinite"
        }
    }
}