{
    "contractName": "CharacterFacet",
    "abi": [
        {
            "inputs": [],
            "name": "AlreadyEquipped",
            "type": "error"
        },
        {
            "inputs": [],
            "name": "ApprovalCallerNotOwnerNorApproved",
            "type": "error"
        },
        {
            "inputs": [],
            "name": "ApprovalQueryForNonexistentToken",
            "type": "error"
        },
        {
            "inputs": [],
            "name": "ApprovalToCurrentOwner",
            "type": "error"
        },
        {
            "inputs": [],
            "name": "ApproveToCaller",
            "type": "error"
        },
        {
            "inputs": [],
            "name": "BalanceQueryForZeroAddress",
            "type": "error"
        },
        {
            "inputs": [],
            "name": "Initialized",
            "type": "error"
        },
        {
            "inputs": [],
            "name": "InsufficientAmount",
            "type": "error"
        },
        {
            "inputs": [],
            "name": "InvalidQueryRange",
            "type": "error"
        },
        {
            "inputs": [],
            "name": "MintToZeroAddress",
            "type": "error"
        },
        {
            "inputs": [],
            "name": "MintZeroQuantity",
            "type": "error"
        },
        {
            "inputs": [],
            "name": "NotOwner",
            "type": "error"
        },
        {
            "inputs": [],
            "name": "NotOwnerOfEquipment",
            "type": "error"
        },
        {
            "inputs": [],
            "name": "OwnerQueryForNonexistentToken",
            "type": "error"
        },
        {
            "inputs": [],
            "name": "TransferCallerNotOwnerNorApproved",
            "type": "error"
        },
        {
            "inputs": [],
            "name": "TransferFromIncorrectOwner",
            "type": "error"
        },
        {
            "inputs": [],
            "name": "TransferToNonERC721ReceiverImplementer",
            "type": "error"
        },
        {
            "inputs": [],
            "name": "TransferToZeroAddress",
            "type": "error"
        },
        {
            "inputs": [],
            "name": "URIQueryForNonexistentToken",
            "type": "error"
        },
        {
            "anonymous": false,
            "inputs": [
                {
                    "indexed": true,
                    "internalType": "address",
                    "name": "owner",
                    "type": "address"
                },
                {
                    "indexed": true,
                    "internalType": "address",
                    "name": "approved",
                    "type": "address"
                },
                {
                    "indexed": true,
                    "internalType": "uint256",
                    "name": "tokenId",
                    "type": "uint256"
                }
            ],
            "name": "Approval",
            "type": "event"
        },
        {
            "anonymous": false,
            "inputs": [
                {
                    "indexed": true,
                    "internalType": "address",
                    "name": "owner",
                    "type": "address"
                },
                {
                    "indexed": true,
                    "internalType": "address",
                    "name": "operator",
                    "type": "address"
                },
                {
                    "indexed": false,
                    "internalType": "bool",
                    "name": "approved",
                    "type": "bool"
                }
            ],
            "name": "ApprovalForAll",
            "type": "event"
        },
        {
            "anonymous": false,
            "inputs": [
                {
                    "indexed": true,
                    "internalType": "address",
                    "name": "owner",
                    "type": "address"
                },
                {
                    "indexed": true,
                    "internalType": "uint256",
                    "name": "id",
                    "type": "uint256"
                }
            ],
            "name": "CharacterBurned",
            "type": "event"
        },
        {
            "anonymous": false,
            "inputs": [
                {
                    "indexed": true,
                    "internalType": "address",
                    "name": "owner",
                    "type": "address"
                },
                {
                    "indexed": true,
                    "internalType": "uint256",
                    "name": "id",
                    "type": "uint256"
                }
            ],
            "name": "CharacterCreated",
            "type": "event"
        },
        {
            "anonymous": false,
            "inputs": [
                {
                    "indexed": true,
                    "internalType": "address",
                    "name": "from",
                    "type": "address"
                },
                {
                    "indexed": true,
                    "internalType": "address",
                    "name": "to",
                    "type": "address"
                },
                {
                    "indexed": true,
                    "internalType": "uint256",
                    "name": "tokenId",
                    "type": "uint256"
                }
            ],
            "name": "Transfer",
            "type": "event"
        },
        {
            "inputs": [
                {
                    "internalType": "address",
                    "name": "to",
                    "type": "address"
                },
                {
                    "internalType": "uint256",
                    "name": "tokenId",
                    "type": "uint256"
                }
            ],
            "name": "approve",
            "outputs": [],
            "stateMutability": "nonpayable",
            "type": "function"
        },
        {
            "inputs": [
                {
                    "internalType": "address",
                    "name": "owner",
                    "type": "address"
                }
            ],
            "name": "balanceOf",
            "outputs": [
                {
                    "internalType": "uint256",
                    "name": "",
                    "type": "uint256"
                }
            ],
            "stateMutability": "view",
            "type": "function"
        },
        {
            "inputs": [
                {
                    "internalType": "uint256",
                    "name": "id",
                    "type": "uint256"
                }
            ],
            "name": "burnCharacter",
            "outputs": [],
            "stateMutability": "nonpayable",
            "type": "function"
        },
        {
            "inputs": [
                {
                    "internalType": "uint256",
                    "name": "characterId",
                    "type": "uint256"
                },
                {
                    "internalType": "uint256",
                    "name": "equipmentId",
                    "type": "uint256"
                }
            ],
            "name": "equipItem",
            "outputs": [],
            "stateMutability": "nonpayable",
            "type": "function"
        },
        {
            "inputs": [
                {
                    "internalType": "uint256",
                    "name": "tokenId",
                    "type": "uint256"
                }
            ],
            "name": "explicitOwnershipOf",
            "outputs": [
                {
                    "components": [
                        {
                            "internalType": "address",
                            "name": "addr",
                            "type": "address"
                        },
                        {
                            "internalType": "uint64",
                            "name": "startTimestamp",
                            "type": "uint64"
                        },
                        {
                            "internalType": "bool",
                            "name": "burned",
                            "type": "bool"
                        }
                    ],
                    "internalType": "struct IERC721A.TokenOwnership",
                    "name": "",
                    "type": "tuple"
                }
            ],
            "stateMutability": "view",
            "type": "function"
        },
        {
            "inputs": [
                {
                    "internalType": "uint256[]",
                    "name": "tokenIds",
                    "type": "uint256[]"
                }
            ],
            "name": "explicitOwnershipsOf",
            "outputs": [
                {
                    "components": [
                        {
                            "internalType": "address",
                            "name": "addr",
                            "type": "address"
                        },
                        {
                            "internalType": "uint64",
                            "name": "startTimestamp",
                            "type": "uint64"
                        },
                        {
                            "internalType": "bool",
                            "name": "burned",
                            "type": "bool"
                        }
                    ],
                    "internalType": "struct IERC721A.TokenOwnership[]",
                    "name": "",
                    "type": "tuple[]"
                }
            ],
            "stateMutability": "view",
            "type": "function"
        },
        {
            "inputs": [
                {
                    "internalType": "uint256",
                    "name": "id",
                    "type": "uint256"
                },
                {
                    "internalType": "uint32",
                    "name": "amount",
                    "type": "uint32"
                }
            ],
            "name": "gainExperience",
            "outputs": [],
            "stateMutability": "nonpayable",
            "type": "function"
        },
        {
            "inputs": [
                {
                    "internalType": "uint256",
                    "name": "characterId",
                    "type": "uint256"
                },
                {
                    "internalType": "uint256",
                    "name": "skillId",
                    "type": "uint256"
                },
                {
                    "internalType": "uint256",
                    "name": "amount",
                    "type": "uint256"
                }
            ],
            "name": "gainTradeExperience",
            "outputs": [],
            "stateMutability": "nonpayable",
            "type": "function"
        },
        {
            "inputs": [
                {
                    "internalType": "uint256",
                    "name": "tokenId",
                    "type": "uint256"
                }
            ],
            "name": "getApproved",
            "outputs": [
                {
                    "internalType": "address",
                    "name": "",
                    "type": "address"
                }
            ],
            "stateMutability": "view",
            "type": "function"
        },
        {
            "inputs": [
                {
                    "internalType": "uint256",
                    "name": "id",
                    "type": "uint256"
                }
            ],
            "name": "getCharacter",
            "outputs": [
                {
                    "components": [
                        {
                            "internalType": "address",
                            "name": "owner",
                            "type": "address"
                        },
                        {
                            "internalType": "string",
                            "name": "name",
                            "type": "string"
                        },
                        {
                            "internalType": "uint256",
                            "name": "id",
                            "type": "uint256"
                        },
                        {
                            "internalType": "uint32",
                            "name": "level",
                            "type": "uint32"
                        },
                        {
                            "components": [
                                {
                                    "internalType": "uint256",
                                    "name": "level",
                                    "type": "uint256"
                                },
                                {
                                    "internalType": "uint256",
                                    "name": "exp",
                                    "type": "uint256"
                                }
                            ],
                            "internalType": "struct CharacterSkill",
                            "name": "mining",
                            "type": "tuple"
                        },
                        {
                            "components": [
                                {
                                    "internalType": "uint256",
                                    "name": "level",
                                    "type": "uint256"
                                },
                                {
                                    "internalType": "uint256",
                                    "name": "exp",
                                    "type": "uint256"
                                }
                            ],
                            "internalType": "struct CharacterSkill",
                            "name": "woodcutting",
                            "type": "tuple"
                        },
                        {
                            "components": [
                                {
                                    "internalType": "uint256",
                                    "name": "level",
                                    "type": "uint256"
                                },
                                {
                                    "internalType": "uint256",
                                    "name": "exp",
                                    "type": "uint256"
                                }
                            ],
                            "internalType": "struct CharacterSkill",
                            "name": "stonecutting",
                            "type": "tuple"
                        },
                        {
                            "components": [
                                {
                                    "internalType": "uint256",
                                    "name": "level",
                                    "type": "uint256"
                                },
                                {
                                    "internalType": "uint256",
                                    "name": "exp",
                                    "type": "uint256"
                                }
                            ],
                            "internalType": "struct CharacterSkill",
                            "name": "fishing",
                            "type": "tuple"
                        },
                        {
                            "internalType": "uint32",
                            "name": "exp",
                            "type": "uint32"
                        },
                        {
                            "internalType": "uint32",
                            "name": "hp",
                            "type": "uint32"
                        },
                        {
                            "internalType": "uint32",
                            "name": "str",
                            "type": "uint32"
                        },
                        {
                            "internalType": "uint32",
                            "name": "def",
                            "type": "uint32"
                        },
                        {
                            "internalType": "uint32",
                            "name": "dex",
                            "type": "uint32"
                        },
                        {
                            "internalType": "uint32",
                            "name": "agi",
                            "type": "uint32"
                        }
                    ],
                    "internalType": "struct Character",
                    "name": "",
                    "type": "tuple"
                }
            ],
            "stateMutability": "view",
            "type": "function"
        },
        {
            "inputs": [
                {
                    "internalType": "uint256",
                    "name": "id",
                    "type": "uint256"
                }
            ],
            "name": "getCharacterEquipment",
            "outputs": [
                {
                    "components": [
                        {
                            "internalType": "string",
                            "name": "name",
                            "type": "string"
                        },
                        {
                            "internalType": "uint256",
                            "name": "id",
                            "type": "uint256"
                        },
                        {
                            "internalType": "uint32",
                            "name": "hp",
                            "type": "uint32"
                        },
                        {
                            "internalType": "uint32",
                            "name": "str",
                            "type": "uint32"
                        },
                        {
                            "internalType": "uint32",
                            "name": "dex",
                            "type": "uint32"
                        },
                        {
                            "internalType": "uint32",
                            "name": "def",
                            "type": "uint32"
                        },
                        {
                            "internalType": "uint32",
                            "name": "agi",
                            "type": "uint32"
                        },
                        {
                            "internalType": "uint32",
                            "name": "slot",
                            "type": "uint32"
                        },
                        {
                            "internalType": "bool",
                            "name": "equipped",
                            "type": "bool"
                        }
                    ],
                    "internalType": "struct Equip[]",
                    "name": "equips",
                    "type": "tuple[]"
                }
            ],
            "stateMutability": "view",
            "type": "function"
        },
        {
            "inputs": [
                {
                    "internalType": "address",
                    "name": "owner",
                    "type": "address"
                }
            ],
            "name": "getCharactersAndEquipOfOwner",
            "outputs": [
                {
                    "components": [
                        {
                            "internalType": "address",
                            "name": "owner",
                            "type": "address"
                        },
                        {
                            "internalType": "string",
                            "name": "name",
                            "type": "string"
                        },
                        {
                            "internalType": "uint256",
                            "name": "id",
                            "type": "uint256"
                        },
                        {
                            "internalType": "uint32",
                            "name": "level",
                            "type": "uint32"
                        },
                        {
                            "components": [
                                {
                                    "internalType": "uint256",
                                    "name": "level",
                                    "type": "uint256"
                                },
                                {
                                    "internalType": "uint256",
                                    "name": "exp",
                                    "type": "uint256"
                                }
                            ],
                            "internalType": "struct CharacterSkill",
                            "name": "mining",
                            "type": "tuple"
                        },
                        {
                            "components": [
                                {
                                    "internalType": "uint256",
                                    "name": "level",
                                    "type": "uint256"
                                },
                                {
                                    "internalType": "uint256",
                                    "name": "exp",
                                    "type": "uint256"
                                }
                            ],
                            "internalType": "struct CharacterSkill",
                            "name": "woodcutting",
                            "type": "tuple"
                        },
                        {
                            "components": [
                                {
                                    "internalType": "uint256",
                                    "name": "level",
                                    "type": "uint256"
                                },
                                {
                                    "internalType": "uint256",
                                    "name": "exp",
                                    "type": "uint256"
                                }
                            ],
                            "internalType": "struct CharacterSkill",
                            "name": "stonecutting",
                            "type": "tuple"
                        },
                        {
                            "components": [
                                {
                                    "internalType": "uint256",
                                    "name": "level",
                                    "type": "uint256"
                                },
                                {
                                    "internalType": "uint256",
                                    "name": "exp",
                                    "type": "uint256"
                                }
                            ],
                            "internalType": "struct CharacterSkill",
                            "name": "fishing",
                            "type": "tuple"
                        },
                        {
                            "internalType": "uint32",
                            "name": "exp",
                            "type": "uint32"
                        },
                        {
                            "internalType": "uint32",
                            "name": "hp",
                            "type": "uint32"
                        },
                        {
                            "internalType": "uint32",
                            "name": "str",
                            "type": "uint32"
                        },
                        {
                            "internalType": "uint32",
                            "name": "def",
                            "type": "uint32"
                        },
                        {
                            "internalType": "uint32",
                            "name": "dex",
                            "type": "uint32"
                        },
                        {
                            "internalType": "uint32",
                            "name": "agi",
                            "type": "uint32"
                        }
                    ],
                    "internalType": "struct Character[]",
                    "name": "chars",
                    "type": "tuple[]"
                },
                {
                    "components": [
                        {
                            "internalType": "string",
                            "name": "name",
                            "type": "string"
                        },
                        {
                            "internalType": "uint256",
                            "name": "id",
                            "type": "uint256"
                        },
                        {
                            "internalType": "uint32",
                            "name": "hp",
                            "type": "uint32"
                        },
                        {
                            "internalType": "uint32",
                            "name": "str",
                            "type": "uint32"
                        },
                        {
                            "internalType": "uint32",
                            "name": "dex",
                            "type": "uint32"
                        },
                        {
                            "internalType": "uint32",
                            "name": "def",
                            "type": "uint32"
                        },
                        {
                            "internalType": "uint32",
                            "name": "agi",
                            "type": "uint32"
                        },
                        {
                            "internalType": "uint32",
                            "name": "slot",
                            "type": "uint32"
                        },
                        {
                            "internalType": "bool",
                            "name": "equipped",
                            "type": "bool"
                        }
                    ],
                    "internalType": "struct Equip[]",
                    "name": "equips",
                    "type": "tuple[]"
                }
            ],
            "stateMutability": "view",
            "type": "function"
        },
        {
            "inputs": [
                {
                    "internalType": "address",
                    "name": "owner",
                    "type": "address"
                }
            ],
            "name": "getCharactersOfOwner",
            "outputs": [
                {
                    "components": [
                        {
                            "internalType": "address",
                            "name": "owner",
                            "type": "address"
                        },
                        {
                            "internalType": "string",
                            "name": "name",
                            "type": "string"
                        },
                        {
                            "internalType": "uint256",
                            "name": "id",
                            "type": "uint256"
                        },
                        {
                            "internalType": "uint32",
                            "name": "level",
                            "type": "uint32"
                        },
                        {
                            "components": [
                                {
                                    "internalType": "uint256",
                                    "name": "level",
                                    "type": "uint256"
                                },
                                {
                                    "internalType": "uint256",
                                    "name": "exp",
                                    "type": "uint256"
                                }
                            ],
                            "internalType": "struct CharacterSkill",
                            "name": "mining",
                            "type": "tuple"
                        },
                        {
                            "components": [
                                {
                                    "internalType": "uint256",
                                    "name": "level",
                                    "type": "uint256"
                                },
                                {
                                    "internalType": "uint256",
                                    "name": "exp",
                                    "type": "uint256"
                                }
                            ],
                            "internalType": "struct CharacterSkill",
                            "name": "woodcutting",
                            "type": "tuple"
                        },
                        {
                            "components": [
                                {
                                    "internalType": "uint256",
                                    "name": "level",
                                    "type": "uint256"
                                },
                                {
                                    "internalType": "uint256",
                                    "name": "exp",
                                    "type": "uint256"
                                }
                            ],
                            "internalType": "struct CharacterSkill",
                            "name": "stonecutting",
                            "type": "tuple"
                        },
                        {
                            "components": [
                                {
                                    "internalType": "uint256",
                                    "name": "level",
                                    "type": "uint256"
                                },
                                {
                                    "internalType": "uint256",
                                    "name": "exp",
                                    "type": "uint256"
                                }
                            ],
                            "internalType": "struct CharacterSkill",
                            "name": "fishing",
                            "type": "tuple"
                        },
                        {
                            "internalType": "uint32",
                            "name": "exp",
                            "type": "uint32"
                        },
                        {
                            "internalType": "uint32",
                            "name": "hp",
                            "type": "uint32"
                        },
                        {
                            "internalType": "uint32",
                            "name": "str",
                            "type": "uint32"
                        },
                        {
                            "internalType": "uint32",
                            "name": "def",
                            "type": "uint32"
                        },
                        {
                            "internalType": "uint32",
                            "name": "dex",
                            "type": "uint32"
                        },
                        {
                            "internalType": "uint32",
                            "name": "agi",
                            "type": "uint32"
                        }
                    ],
                    "internalType": "struct Character[]",
                    "name": "",
                    "type": "tuple[]"
                }
            ],
            "stateMutability": "view",
            "type": "function"
        },
        {
            "inputs": [
                {
                    "internalType": "address",
                    "name": "_equipment",
                    "type": "address"
                }
            ],
            "name": "initialize",
            "outputs": [],
            "stateMutability": "nonpayable",
            "type": "function"
        },
        {
            "inputs": [
                {
                    "internalType": "address",
                    "name": "owner",
                    "type": "address"
                },
                {
                    "internalType": "address",
                    "name": "operator",
                    "type": "address"
                }
            ],
            "name": "isApprovedForAll",
            "outputs": [
                {
                    "internalType": "bool",
                    "name": "",
                    "type": "bool"
                }
            ],
            "stateMutability": "view",
            "type": "function"
        },
        {
            "inputs": [
                {
                    "internalType": "string",
                    "name": "name",
                    "type": "string"
                }
            ],
            "name": "mintCharacter",
            "outputs": [],
            "stateMutability": "payable",
            "type": "function"
        },
        {
            "inputs": [],
            "name": "name",
            "outputs": [
                {
                    "internalType": "string",
                    "name": "",
                    "type": "string"
                }
            ],
            "stateMutability": "view",
            "type": "function"
        },
        {
            "inputs": [
                {
                    "internalType": "uint256",
                    "name": "tokenId",
                    "type": "uint256"
                }
            ],
            "name": "ownerOf",
            "outputs": [
                {
                    "internalType": "address",
                    "name": "",
                    "type": "address"
                }
            ],
            "stateMutability": "view",
            "type": "function"
        },
        {
            "inputs": [
                {
                    "internalType": "address",
                    "name": "from",
                    "type": "address"
                },
                {
                    "internalType": "address",
                    "name": "to",
                    "type": "address"
                },
                {
                    "internalType": "uint256",
                    "name": "tokenId",
                    "type": "uint256"
                }
            ],
            "name": "safeTransferFrom",
            "outputs": [],
            "stateMutability": "nonpayable",
            "type": "function"
        },
        {
            "inputs": [
                {
                    "internalType": "address",
                    "name": "from",
                    "type": "address"
                },
                {
                    "internalType": "address",
                    "name": "to",
                    "type": "address"
                },
                {
                    "internalType": "uint256",
                    "name": "tokenId",
                    "type": "uint256"
                },
                {
                    "internalType": "bytes",
                    "name": "_data",
                    "type": "bytes"
                }
            ],
            "name": "safeTransferFrom",
            "outputs": [],
            "stateMutability": "nonpayable",
            "type": "function"
        },
        {
            "inputs": [
                {
                    "internalType": "address",
                    "name": "operator",
                    "type": "address"
                },
                {
                    "internalType": "bool",
                    "name": "approved",
                    "type": "bool"
                }
            ],
            "name": "setApprovalForAll",
            "outputs": [],
            "stateMutability": "nonpayable",
            "type": "function"
        },
        {
            "inputs": [],
            "name": "symbol",
            "outputs": [
                {
                    "internalType": "string",
                    "name": "",
                    "type": "string"
                }
            ],
            "stateMutability": "view",
            "type": "function"
        },
        {
            "inputs": [
                {
                    "internalType": "uint32",
                    "name": "level",
                    "type": "uint32"
                }
            ],
            "name": "toNextLevel",
            "outputs": [
                {
                    "internalType": "uint32",
                    "name": "",
                    "type": "uint32"
                }
            ],
            "stateMutability": "pure",
            "type": "function"
        },
        {
            "inputs": [
                {
                    "internalType": "uint256",
                    "name": "tokenId",
                    "type": "uint256"
                }
            ],
            "name": "tokenURI",
            "outputs": [
                {
                    "internalType": "string",
                    "name": "",
                    "type": "string"
                }
            ],
            "stateMutability": "view",
            "type": "function"
        },
        {
            "inputs": [
                {
                    "internalType": "address",
                    "name": "owner",
                    "type": "address"
                }
            ],
            "name": "tokensOfOwner",
            "outputs": [
                {
                    "internalType": "uint256[]",
                    "name": "",
                    "type": "uint256[]"
                }
            ],
            "stateMutability": "view",
            "type": "function"
        },
        {
            "inputs": [
                {
                    "internalType": "address",
                    "name": "owner",
                    "type": "address"
                },
                {
                    "internalType": "uint256",
                    "name": "start",
                    "type": "uint256"
                },
                {
                    "internalType": "uint256",
                    "name": "stop",
                    "type": "uint256"
                }
            ],
            "name": "tokensOfOwnerIn",
            "outputs": [
                {
                    "internalType": "uint256[]",
                    "name": "",
                    "type": "uint256[]"
                }
            ],
            "stateMutability": "view",
            "type": "function"
        },
        {
            "inputs": [],
            "name": "totalSupply",
            "outputs": [
                {
                    "internalType": "uint256",
                    "name": "",
                    "type": "uint256"
                }
            ],
            "stateMutability": "view",
            "type": "function"
        },
        {
            "inputs": [
                {
                    "internalType": "address",
                    "name": "from",
                    "type": "address"
                },
                {
                    "internalType": "address",
                    "name": "to",
                    "type": "address"
                },
                {
                    "internalType": "uint256",
                    "name": "tokenId",
                    "type": "uint256"
                }
            ],
            "name": "transferFrom",
            "outputs": [],
            "stateMutability": "nonpayable",
            "type": "function"
        }
    ],
    "bytecode": "608060405234801561001057600080fd5b50613df9806100206000396000f3fe6080604052600436106101b75760003560e01c80638462151c116100ec578063c23dc68f1161008a578063ce49d15a11610064578063ce49d15a1461051b578063dabb05311461053b578063e0fcf4bb14610568578063e985e9c51461059d57600080fd5b8063c23dc68f146104ae578063c4d66de8146104db578063c87b56dd146104fb57600080fd5b806399a2557a116100c657806399a2557a1461042e578063a22cb4651461044e578063a7dc0d451461046e578063b88d4fde1461048e57600080fd5b80638462151c146103cc5780638a499b71146103f957806395d89b411461041957600080fd5b80632b1d5039116101595780635bbb2177116101335780635bbb2177146103315780636352211e1461035e57806370a082311461037e578063730c08091461039e57600080fd5b80632b1d5039146102d157806342842e0e146102e457806354d12f451461030457600080fd5b80630967469111610195578063096746911461024157806318160ddd1461026e57806323b872dd14610291578063262a8c3b146102b157600080fd5b806306fdde03146101bc578063081812fc146101e7578063095ea7b31461021f575b600080fd5b3480156101c857600080fd5b506101d16105cd565b6040516101de919061311c565b60405180910390f35b3480156101f357600080fd5b5061020761020236600461312f565b610662565b6040516001600160a01b0390911681526020016101de565b34801561022b57600080fd5b5061023f61023a36600461315d565b6106a6565b005b34801561024d57600080fd5b5061026161025c366004613189565b610778565b6040516101de9190613331565b34801561027a57600080fd5b50600a54600954035b6040519081526020016101de565b34801561029d57600080fd5b5061023f6102ac366004613344565b610a15565b3480156102bd57600080fd5b5061023f6102cc366004613385565b610a25565b61023f6102df36600461347b565b610ef6565b3480156102f057600080fd5b5061023f6102ff366004613344565b611458565b34801561031057600080fd5b5061032461031f36600461312f565b611473565b6040516101de919061358c565b34801561033d57600080fd5b5061035161034c36600461359f565b6115e3565b6040516101de9190613644565b34801561036a57600080fd5b5061020761037936600461312f565b6116a1565b34801561038a57600080fd5b50610283610399366004613189565b6116b2565b3480156103aa57600080fd5b506103be6103b9366004613189565b6116f5565b6040516101de9291906136ae565b3480156103d857600080fd5b506103ec6103e7366004613189565b611aa3565b6040516101de91906136dc565b34801561040557600080fd5b5061023f61041436600461312f565b611ba4565b34801561042557600080fd5b506101d1611c9a565b34801561043a57600080fd5b506103ec610449366004613714565b611cac565b34801561045a57600080fd5b5061023f610469366004613757565b611e25565b34801561047a57600080fd5b5061023f610489366004613790565b611eba565b34801561049a57600080fd5b5061023f6104a93660046137bc565b611f93565b3480156104ba57600080fd5b506104ce6104c936600461312f565b611fd7565b6040516101de919061383b565b3480156104e757600080fd5b5061023f6104f6366004613189565b612040565b34801561050757600080fd5b506101d161051636600461312f565b6120d9565b34801561052757600080fd5b5061023f610536366004613882565b612169565b34801561054757600080fd5b5061055b61055636600461312f565b61220a565b6040516101de91906138a7565b34801561057457600080fd5b506105886105833660046138ba565b6123cc565b60405163ffffffff90911681526020016101de565b3480156105a957600080fd5b506105bd6105b83660046138d7565b6123fb565b60405190151581526020016101de565b60606000600b0180546105df90613905565b80601f016020809104026020016040519081016040528092919081815260200182805461060b90613905565b80156106585780601f1061062d57610100808354040283529160200191610658565b820191906000526020600020905b81548152906001019060200180831161063b57829003601f168201915b5050505050905090565b600061066d82612429565b61068a576040516333d1c03960e21b815260040160405180910390fd5b506000908152600f60205260409020546001600160a01b031690565b60006106b182612450565b9050806001600160a01b0316836001600160a01b0316036106e55760405163250fdee360e21b815260040160405180910390fd5b336001600160a01b0382161461071c576106ff81336123fb565b61071c576040516367d9dca160e11b815260040160405180910390fd5b6000828152600f602052604080822080546001600160a01b0319166001600160a01b0387811691821790925591518593918516917f8c5be1e5ebec7d5bd14f71427d1e84f3dd0314c0f7b2291e5b200ac8c7c3b92591a4505050565b6060600061078583611aa3565b9050600081516001600160401b038111156107a2576107a26133a7565b6040519080825280602002602001820160405280156107db57816020015b6107c8612f0b565b8152602001906001900390816107c05790505b50905060005b8251811015610a0d576000601801600084838151811061080357610803613939565b60200260200101518152602001908152602001600020604051806101c00160405290816000820160009054906101000a90046001600160a01b03166001600160a01b03166001600160a01b0316815260200160018201805461086490613905565b80601f016020809104026020016040519081016040528092919081815260200182805461089090613905565b80156108dd5780601f106108b2576101008083540402835291602001916108dd565b820191906000526020600020905b8154815290600101906020018083116108c057829003601f168201915b50505091835250506002820154602080830191909152600383015463ffffffff9081166040808501919091528051808201825260048601548152600586015481850152606085015280518082018252600686015481526007860154818501526080850152805180820182526008860154815260098601548185015260a08501528051808201909152600a8501548152600b8501549281019290925260c0830191909152600c9092015480831660e0830152600160201b81048316610100830152600160401b81048316610120830152600160601b81048316610140830152600160801b81048316610160830152600160a01b90049091166101809091015282518390839081106109ef576109ef613939565b60200260200101819052508080610a0590613965565b9150506107e1565b509392505050565b610a208383836124b7565b505050565b6000828152601860205260409081902060175491516331a9108f60e11b815260048101849052909133916001600160a01b0390911690636352211e90602401602060405180830381865afa158015610a81573d6000803e3d6000fd5b505050506040513d601f19601f82011682018060405250810190610aa5919061397e565b6001600160a01b031614610acc576040516391ad8ff160e01b815260040160405180910390fd5b60175460405163040ee97d60e51b8152600481018490526000916001600160a01b0316906381dd2fa090602401600060405180830381865afa158015610b16573d6000803e3d6000fd5b505050506040513d6000823e601f3d908101601f19168201604052610b3e91908101906139fb565b6101008101519091501515600103610b6957604051632e53a30360e01b815260040160405180910390fd5b600084815260196020908152604080832060e085015163ffffffff16845290915280822081516101208101909252805482908290610ba690613905565b80601f0160208091040260200160405190810160405280929190818152602001828054610bd290613905565b8015610c1f5780601f10610bf457610100808354040283529160200191610c1f565b820191906000526020600020905b815481529060010190602001808311610c0257829003601f168201915b50505091835250506001820154602082015260029091015463ffffffff808216604080850191909152600160201b80840483166060860152600160401b840483166080860152600160601b8404831660a0860152600160801b8404831660c0860152600160a01b8404831660e0860152600160c01b90930460ff161515610100909401939093528383015192860151600c8801549495509293610cc59392900416613aee565b610ccf9190613b16565b600c8401805467ffffffff000000001916600160201b63ffffffff938416021790819055606083810151908501519092610d1092600160401b900416613aee565b610d1a9190613b16565b600c8401805463ffffffff60401b1916600160401b63ffffffff93841602179081905560a083810151908501519092610d5a92600160601b900416613aee565b610d649190613b16565b600c8401805463ffffffff60601b1916600160601b63ffffffff93841602179081905560c083810151908501519092610da492600160a01b900416613aee565b610dae9190613b16565b600c8401805463ffffffff60a01b1916600160a01b63ffffffff938416021790819055608083810151908501519092610dee92600160801b900416613aee565b610df89190613b16565b600c8401805463ffffffff92909216600160801b0263ffffffff60801b1990921691909117905560175460405163a272541760e01b815260048101869052600160248201526001600160a01b039091169063a272541790604401600060405180830381600087803b158015610e6c57600080fd5b505af1158015610e80573d6000803e3d6000fd5b5050601754602084015160405163a272541760e01b81526004810191909152600060248201526001600160a01b03909116925063a27254179150604401600060405180830381600087803b158015610ed757600080fd5b505af1158015610eeb573d6000803e3d6000fd5b505050505050505050565b601554341015610f1957604051632ca2f52b60e11b815260040160405180910390fd5b601754600160e01b900463ffffffff164314610f63576017805463ffffffff60c01b1963ffffffff4316600160e01b02166001600160c01b0390911617600160c01b179055610fa4565b601754610f7e90600160c01b900463ffffffff166001613aee565b6017805463ffffffff92909216600160c01b0263ffffffff60c01b199092169190911790555b610faf336001612677565b601754600090600160c01b900463ffffffff1633610fce600143613b3b565b610fd9919040613b68565b610fe39190613b7c565b604051602001610ff591815260200190565b604051602081830303815290604052905060006110426003600a846001865161101e9190613b3b565b8151811061102e5761102e613939565b01602001516001600160f81b03191661275d565b9050600061105c60026007856002875161101e9190613b3b565b9050600061107660026007866003885161101e9190613b3b565b9050600061109060026007876004895161101e9190613b3b565b905060006110aa600260078860058a5161101e9190613b3b565b604080516101c08101825233815260208082018b815260165483850181905260016060850181905285518087018752818152600081860181905260808701919091528651808801885282815280860182905260a08701528651808801885282815280860182905260c08701528651808801885282815280860182905260e0870152610100860181905263ffffffff8d81166101208801528c81166101408801528b81166101608801528a811661018088015288166101a087015291825260188452949020835181546001600160a01b0319166001600160a01b0390911617815590518051959650929490936111a493908501920190612ff5565b506040828101516002830155606083015160038301805463ffffffff191663ffffffff928316179055608084015180516004850155602090810151600585015560a08086015180516006870155820151600786015560c086015180516008870155820151600986015560e08601518051600a87015590910151600b850155610100850151600c90940180546101208701516101408801516101608901516101808a01516101a0909a015198871667ffffffffffffffff1990941693909317600160201b92871692909202919091176fffffffffffffffff00000000000000001916600160401b9186169190910263ffffffff60601b191617600160601b918516919091021767ffffffffffffffff60801b1916600160801b9684169690960263ffffffff60a01b191695909517600160a01b94909216939093021790925581519081019091528651819088906112fc90600190613b3b565b8151811061130c5761130c613939565b0160209081015160f81c82528851910190889061132b90600290613b3b565b8151811061133b5761133b613939565b0160209081015160f81c82528851910190889061135a90600390613b3b565b8151811061136a5761136a613939565b0160209081015160f81c82528851910190889061138990600490613b3b565b8151811061139957611399613939565b0160209081015160f81c8252885191019088906113b890600590613b3b565b815181106113c8576113c8613939565b0160209081015160f81c909152601680546000908152601a83526040808220855181559385015160018501558481015160028501556060850151600385015560809094015160049093019290925554915133917f01269de8ca9889348c81498ea6aa98b1f133bd5b3e20a212c24d9858ddd9b63691a360165461144c906001613b7c565b60165550505050505050565b610a2083838360405180602001604052806000815250611f93565b606060005b60058110156115dd57600083815260196020908152604080832084845290915290819020815161012081019092528054829082906114b590613905565b80601f01602080910402602001604051908101604052809291908181526020018280546114e190613905565b801561152e5780601f106115035761010080835404028352916020019161152e565b820191906000526020600020905b81548152906001019060200180831161151157829003601f168201915b50505091835250506001820154602082015260029091015463ffffffff8082166040840152600160201b820481166060840152600160401b820481166080840152600160601b8204811660a0840152600160801b8204811660c0840152600160a01b82041660e0830152600160c01b900460ff1615156101009091015282518390839081106115bf576115bf613939565b602002602001018190525080806115d590613965565b915050611478565b50919050565b80516060906000816001600160401b03811115611602576116026133a7565b60405190808252806020026020018201604052801561164d57816020015b60408051606081018252600080825260208083018290529282015282526000199092019101816116205790505b50905060005b828114610a0d5761167c85828151811061166f5761166f613939565b6020026020010151611fd7565b82828151811061168e5761168e613939565b6020908102919091010152600101611653565b60006116ac82612450565b92915050565b6000816000036116d5576040516323d3ad8160e21b815260040160405180910390fd5b50600080546001600160a01b039092168152600e60205260409020541690565b606080600061170384611aa3565b905060005b8151811015611a9c576000601801600083838151811061172a5761172a613939565b60200260200101518152602001908152602001600020604051806101c00160405290816000820160009054906101000a90046001600160a01b03166001600160a01b03166001600160a01b0316815260200160018201805461178b90613905565b80601f01602080910402602001604051908101604052809291908181526020018280546117b790613905565b80156118045780601f106117d957610100808354040283529160200191611804565b820191906000526020600020905b8154815290600101906020018083116117e757829003601f168201915b50505091835250506002820154602080830191909152600383015463ffffffff9081166040808501919091528051808201825260048601548152600586015481850152606085015280518082018252600686015481526007860154818501526080850152805180820182526008860154815260098601548185015260a08501528051808201909152600a8501548152600b8501549281019290925260c0830191909152600c9092015480831660e0830152600160201b81048316610100830152600160401b81048316610120830152600160601b81048316610140830152600160801b81048316610160830152600160a01b900490911661018090910152845185908390811061191657611916613939565b602002602001018190525060005b6005811015611a89576000828152601960209081526040808320848452909152908190208151610120810190925280548290829061196190613905565b80601f016020809104026020016040519081016040528092919081815260200182805461198d90613905565b80156119da5780601f106119af576101008083540402835291602001916119da565b820191906000526020600020905b8154815290600101906020018083116119bd57829003601f168201915b50505091835250506001820154602082015260029091015463ffffffff8082166040840152600160201b820481166060840152600160401b820481166080840152600160601b8204811660a0840152600160801b8204811660c0840152600160a01b82041660e0830152600160c01b900460ff161515610100909101528451859083908110611a6b57611a6b613939565b60200260200101819052508080611a8190613965565b915050611924565b5080611a9481613965565b915050611708565b5050915091565b60606000806000611ab3856116b2565b90506000816001600160401b03811115611acf57611acf6133a7565b604051908082528060200260200182016040528015611af8578160200160208202803683370190505b509050611b1e604080516060810182526000808252602082018190529181019190915290565b60005b838614611b9857611b31816127cb565b91508160400151611b905781516001600160a01b031615611b5157815194505b876001600160a01b0316856001600160a01b031603611b905780838780600101985081518110611b8357611b83613939565b6020026020010181815250505b600101611b21565b50909695505050505050565b33611bae826116a1565b6001600160a01b031614611bd5576040516330cd747160e01b815260040160405180910390fd5b611bde81612800565b600081815260186020526040812080546001600160a01b031916815590611c086001830182613079565b5060006002820181905560038201805463ffffffff19169055600482018190556005820181905560068201819055600782018190556008820181905560098201819055600a8201819055600b8201819055600c90910180546001600160c01b0319169055604051829133917f90b8b0d918a0b40ddc01490e0159e32e379f3faae8eda99294d28ad136bb3df19190a350565b60606000600c0180546105df90613905565b6060818310611cce57604051631960ccad60e11b815260040160405180910390fd5b600080611cda60095490565b905080841115611ce8578093505b6000611cf3876116b2565b905084861015611d125785850381811015611d0c578091505b50611d16565b5060005b6000816001600160401b03811115611d3057611d306133a7565b604051908082528060200260200182016040528015611d59578160200160208202803683370190505b50905081600003611d6f579350611e1e92505050565b6000611d7a88611fd7565b905060008160400151611d8b575080515b885b888114158015611d9d5750848714155b15611e1257611dab816127cb565b92508260400151611e0a5782516001600160a01b031615611dcb57825191505b8a6001600160a01b0316826001600160a01b031603611e0a5780848880600101995081518110611dfd57611dfd613939565b6020026020010181815250505b600101611d8d565b50505092835250909150505b9392505050565b336001600160a01b03831603611e4e5760405163b06307db60e01b815260040160405180910390fd5b3360008181526010602090815260408083206001600160a01b03871680855290835292819020805460ff191686151590811790915590519081529192917f17307eab39ab6107e8899845ad3d59bd9653f200f220920489ca2b5937696c31910160405180910390a35050565b611ec261280e565b6001600160a01b0316336001600160a01b031614611efb5760405162461bcd60e51b8152600401611ef290613b94565b60405180910390fd5b600083815260186020526040812090839003611f2b576005810154611f21908390613b7c565b6005820155611f8d565b82600103611f4d576005810154611f43908390613b7c565b600b820155611f8d565b82600203611f6f576005810154611f65908390613b7c565b6007820155611f8d565b82600303611f8d576005810154611f87908390613b7c565b60098201555b50505050565b611f9e8484846124b7565b6001600160a01b0383163b15611f8d57611fba8484848461283c565b611f8d576040516368d2bf6b60e11b815260040160405180910390fd5b604080516060808201835260008083526020808401829052838501829052845192830185528183528201819052928101839052909150600954831061201c5792915050565b612025836127cb565b90508060400151156120375792915050565b611e1e83612928565b61204861280e565b6001600160a01b0316336001600160a01b0316146120785760405162461bcd60e51b8152600401611ef290613b94565b601454600160801b900460ff16156120a3576040516302ed543d60e51b815260040160405180910390fd5b6014805460ff60801b1916600160801b179055601780546001600160a01b039092166001600160a01b0319909216919091179055565b60606120e482612429565b61210157604051630a14c4b560e41b815260040160405180910390fd5b600061211860408051602081019091526000815290565b905080516000036121385760405180602001604052806000815250611e1e565b8061214284612956565b604051602001612153929190613bb7565b6040516020818303038152906040529392505050565b61217161280e565b6001600160a01b0316336001600160a01b0316146121a15760405162461bcd60e51b8152600401611ef290613b94565b6000828152601860205260409020600c8101546121c590839063ffffffff16613aee565b600c8201805463ffffffff191663ffffffff92831617905560038201546121ec91166123cc565b600c82015463ffffffff91821691161115610a2057610a20816129a5565b612212612f0b565b60008281526018602090815260409182902082516101c0810190935280546001600160a01b03168352600181018054919284019161224f90613905565b80601f016020809104026020016040519081016040528092919081815260200182805461227b90613905565b80156122c85780601f1061229d576101008083540402835291602001916122c8565b820191906000526020600020905b8154815290600101906020018083116122ab57829003601f168201915b50505091835250506002820154602080830191909152600383015463ffffffff9081166040808501919091528051808201825260048601548152600586015481850152606085015280518082018252600686015481526007860154818501526080850152805180820182526008860154815260098601548185015260a08501528051808201909152600a8501548152600b8501549281019290925260c0830191909152600c9092015480831660e0830152600160201b81048316610100830152600160401b81048316610120830152600160601b81048316610140830152600160801b81048316610160830152600160a01b90049091166101809091015292915050565b600060056123db600284613cee565b6123e6906004613d03565b6123f09190613d2f565b6116ac906032613aee565b6001600160a01b03918216600090815260106020908152604080832093909416825291909152205460ff1690565b6000600954821080156116ac5750506006546000918252600d602052604090912054161590565b60008160095481101561249e576000818152600d60205260408120546006549091908216900361249c575b80600003611e1e5750600019016000818152600d602052604090205461247b565b505b604051636f96cda160e11b815260040160405180910390fd5b60006124c282612450565b9050836001600160a01b0316816001600160a01b0316146124f55760405162a1148160e81b815260040160405180910390fd5b6000828152600f60205260408120546001600160a01b0390811691908616331480612525575061252586336123fb565b8061253857506001600160a01b03821633145b90508061255857604051632ce44b5f60e11b815260040160405180910390fd5b8460000361257957604051633a954ecd60e21b815260040160405180910390fd5b811561259c576000848152600f6020526040902080546001600160a01b03191690555b6001600160a01b038681166000908152600e602052604080822080546000190190559187168152208054600101905560085460055442901b866000878152600d60205260408120929091179290921790556008548416900361262e57600184016000818152600d6020526040812054900361262c57600954811461262c576000818152600d602052604090208490555b505b83856001600160a01b0316876001600160a01b03167fddf252ad1be2c89b69c2b068fc378daa952ba7f163c4a11628f55a4df523b3ef60405160405180910390a4505050505050565b6009548260000361269a57604051622e076360e81b815260040160405180910390fd5b816000036126bb5760405163b562e8dd60e01b815260040160405180910390fd5b600180546001600160a01b0385166000908152600e6020526040902080549183901b831785029091019055600754908314600554911b9042901b846000848152600d602052604090209117919091179055808281015b6040516001830192906001600160a01b038716906000907fddf252ad1be2c89b69c2b068fc378daa952ba7f163c4a11628f55a4df523b3ef908290a48082106127115750600955505050565b600080612775600161276f8688612d28565b90612d34565b6040516001600160f81b0319851660208201529091506000906127b590839060210160408051601f19818403018152919052805160209091012090612d40565b90506127c18187612d34565b9695505050505050565b60408051606081018252600080825260208201819052918101919091526000828152600d60205260409020546116ac90612d4c565b61280b816000612d85565b50565b7fc8fcad8db84d3cc18b4c41d551ea0ee66dd599cde068d998e57d5e09332c131f546001600160a01b031690565b604051630a85bd0160e11b81526000906001600160a01b0385169063150b7a0290612871903390899088908890600401613d52565b6020604051808303816000875af19250505080156128ac575060408051601f3d908101601f191682019092526128a991810190613d85565b60015b61290a573d8080156128da576040519150601f19603f3d011682016040523d82523d6000602084013e6128df565b606091505b508051600003612902576040516368d2bf6b60e11b815260040160405180910390fd5b805181602001fd5b6001600160e01b031916630a85bd0160e11b1490505b949350505050565b60408051606081018252600080825260208201819052918101919091526116ac61295183612450565b612d4c565b604080516080810191829052607f0190826030600a8206018353600a90045b801561299357600183039250600a81066030018353600a9004612975565b50819003601f19909101908152919050565b60038101546129b99063ffffffff166123cc565b600c8201546129ce919063ffffffff16613b16565b600c8201805463ffffffff191663ffffffff9283161790556002808301546000908152601a6020908152604091829020825160a0810184528154815260018281015493820193909352938101549284019290925260038083015460608501526004909201546080840152908401549192612a49921690613aee565b60038301805463ffffffff191663ffffffff929092169182179055815160ff91612a7291613d03565b612a7c9190613d2f565b600380840154612a949163ffffffff90911690613d03565b600384810154612aaa919063ffffffff16613cee565b612ab49190613d2f565b612abf90600a613aee565b612ac99190613aee565b600c8301805467ffffffff000000001916600160201b63ffffffff938416021790556003830154602083015160ff92612b03921690613d03565b612b0d9190613d2f565b6003830154612b239063ffffffff16600f613d03565b600384810154612b39919063ffffffff16613cee565b612b439190613d2f565b612b4e906002613aee565b612b589190613aee565b600c8301805463ffffffff60401b1916600160401b63ffffffff938416021790556003830154608083015160ff92612b91921690613d03565b612b9b9190613d2f565b6003830154612bb19063ffffffff16600f613d03565b600384810154612bc7919063ffffffff16613cee565b612bd19190613d2f565b612bdc906002613aee565b612be69190613aee565b600c8301805463ffffffff60801b1916600160801b63ffffffff938416021790556003830154606083015160ff92612c1f921690613d03565b612c299190613d2f565b6003830154612c3f9063ffffffff16600f613d03565b600384810154612c55919063ffffffff16613cee565b612c5f9190613d2f565b612c6a906002613aee565b612c749190613aee565b600c8301805463ffffffff60a01b1916600160a01b63ffffffff938416021790556003830154604083015160ff92612cad921690613d03565b612cb79190613d2f565b6003830154612ccd9063ffffffff16600f613d03565b600384810154612ce3919063ffffffff16613cee565b612ced9190613d2f565b612cf8906002613aee565b612d029190613aee565b82600c01600c6101000a81548163ffffffff021916908363ffffffff1602179055505050565b6000611e1e8284613b3b565b6000611e1e8284613b7c565b6000611e1e8284613daf565b604080516060810182526001600160a01b038316815260055483901c6001600160401b0316602082015260065490921615159082015290565b6000612d9083612450565b6000848152600f602052604090205490915081906001600160a01b03168315612e06576000336001600160a01b0384161480612dd15750612dd183336123fb565b80612de457506001600160a01b03821633145b905080612e0457604051632ce44b5f60e11b815260040160405180910390fd5b505b8015612e29576000858152600f6020526040902080546001600160a01b03191690555b6002546001600160a01b0383166000908152600e602052604090208054600190921b90910160001901905560085460065460055442901b841717176000600d016000878152602001908152602001600020819055506000600801548316600003612ec357600185016000818152600d60205260408120549003612ec1576009548114612ec1576000818152600d602052604090208490555b505b60405185906000906001600160a01b038516907fddf252ad1be2c89b69c2b068fc378daa952ba7f163c4a11628f55a4df523b3ef908390a45050600a80546001019055505050565b604051806101c0016040528060006001600160a01b031681526020016060815260200160008152602001600063ffffffff168152602001612f5f604051806040016040528060008152602001600081525090565b8152602001612f81604051806040016040528060008152602001600081525090565b8152602001612fa3604051806040016040528060008152602001600081525090565b8152602001612fc5604051806040016040528060008152602001600081525090565b815260006020820181905260408201819052606082018190526080820181905260a0820181905260c09091015290565b82805461300190613905565b90600052602060002090601f0160209004810192826130235760008555613069565b82601f1061303c57805160ff1916838001178555613069565b82800160010185558215613069579182015b8281111561306957825182559160200191906001019061304e565b506130759291506130af565b5090565b50805461308590613905565b6000825580601f10613095575050565b601f01602090049060005260206000209081019061280b91905b5b8082111561307557600081556001016130b0565b60005b838110156130df5781810151838201526020016130c7565b83811115611f8d5750506000910152565b600081518084526131088160208601602086016130c4565b601f01601f19169290920160200192915050565b602081526000611e1e60208301846130f0565b60006020828403121561314157600080fd5b5035919050565b6001600160a01b038116811461280b57600080fd5b6000806040838503121561317057600080fd5b823561317b81613148565b946020939093013593505050565b60006020828403121561319b57600080fd5b8135611e1e81613148565b80516001600160a01b03168252600061024060208301518160208601526131cf828601826130f0565b9150506040830151604085015260608301516131f3606086018263ffffffff169052565b506080830151613210608086018280518252602090810151910152565b5060a0830151805160c0860152602081015160e08601525060c08301516101006132468187018380518252602090810151910152565b60e085015191506101406132668188018480518252602090810151910152565b908501519150610180906132818783018463ffffffff169052565b61012086015192506101a061329d8189018563ffffffff169052565b9086015163ffffffff9081166101c089015261016087015181166101e08901529186015182166102008801528501519081166102208701529050610a0d565b600081518084526020808501808196508360051b8101915082860160005b858110156133245782840389526133128483516131a6565b988501989350908401906001016132fa565b5091979650505050505050565b602081526000611e1e60208301846132dc565b60008060006060848603121561335957600080fd5b833561336481613148565b9250602084013561337481613148565b929592945050506040919091013590565b6000806040838503121561339857600080fd5b50508035926020909101359150565b634e487b7160e01b600052604160045260246000fd5b60405161012081016001600160401b03811182821017156133e0576133e06133a7565b60405290565b604051601f8201601f191681016001600160401b038111828210171561340e5761340e6133a7565b604052919050565b60006001600160401b0382111561342f5761342f6133a7565b50601f01601f191660200190565b600061345061344b84613416565b6133e6565b905082815283838301111561346457600080fd5b828260208301376000602084830101529392505050565b60006020828403121561348d57600080fd5b81356001600160401b038111156134a357600080fd5b8201601f810184136134b457600080fd5b6129208482356020840161343d565b600081518084526020808501808196508360051b8101915082860160005b8581101561332457828403895281516101208151818752613504828801826130f0565b91505086820151878701526040808301516135268289018263ffffffff169052565b505060608281015163ffffffff9081169188019190915260808084015182169088015260a08084015182169088015260c08084015182169088015260e08084015190911690870152610100918201511515919095015297840197908401906001016134e1565b602081526000611e1e60208301846134c3565b600060208083850312156135b257600080fd5b82356001600160401b03808211156135c957600080fd5b818501915085601f8301126135dd57600080fd5b8135818111156135ef576135ef6133a7565b8060051b91506136008483016133e6565b818152918301840191848101908884111561361a57600080fd5b938501935b838510156136385784358252938501939085019061361f565b98975050505050505050565b6020808252825182820181905260009190848201906040850190845b81811015611b985761369b83855180516001600160a01b031682526020808201516001600160401b0316908301526040908101511515910152565b9284019260609290920191600101613660565b6040815260006136c160408301856132dc565b82810360208401526136d381856134c3565b95945050505050565b6020808252825182820181905260009190848201906040850190845b81811015611b98578351835292840192918401916001016136f8565b60008060006060848603121561372957600080fd5b833561373481613148565b95602085013595506040909401359392505050565b801515811461280b57600080fd5b6000806040838503121561376a57600080fd5b823561377581613148565b9150602083013561378581613749565b809150509250929050565b6000806000606084860312156137a557600080fd5b505081359360208301359350604090920135919050565b600080600080608085870312156137d257600080fd5b84356137dd81613148565b935060208501356137ed81613148565b92506040850135915060608501356001600160401b0381111561380f57600080fd5b8501601f8101871361382057600080fd5b61382f8782356020840161343d565b91505092959194509250565b81516001600160a01b031681526020808301516001600160401b031690820152604080830151151590820152606081016116ac565b63ffffffff8116811461280b57600080fd5b6000806040838503121561389557600080fd5b82359150602083013561378581613870565b602081526000611e1e60208301846131a6565b6000602082840312156138cc57600080fd5b8135611e1e81613870565b600080604083850312156138ea57600080fd5b82356138f581613148565b9150602083013561378581613148565b600181811c9082168061391957607f821691505b6020821081036115dd57634e487b7160e01b600052602260045260246000fd5b634e487b7160e01b600052603260045260246000fd5b634e487b7160e01b600052601160045260246000fd5b6000600182016139775761397761394f565b5060010190565b60006020828403121561399057600080fd5b8151611e1e81613148565b600082601f8301126139ac57600080fd5b81516139ba61344b82613416565b8181528460208386010111156139cf57600080fd5b6129208260208301602087016130c4565b80516139eb81613870565b919050565b80516139eb81613749565b600060208284031215613a0d57600080fd5b81516001600160401b0380821115613a2457600080fd5b908301906101208286031215613a3957600080fd5b613a416133bd565b825182811115613a5057600080fd5b613a5c8782860161399b565b82525060208301516020820152613a75604084016139e0565b6040820152613a86606084016139e0565b6060820152613a97608084016139e0565b6080820152613aa860a084016139e0565b60a0820152613ab960c084016139e0565b60c0820152613aca60e084016139e0565b60e08201526101009150613adf8284016139f0565b91810191909152949350505050565b600063ffffffff808316818516808303821115613b0d57613b0d61394f565b01949350505050565b600063ffffffff83811690831681811015613b3357613b3361394f565b039392505050565b600082821015613b4d57613b4d61394f565b500390565b634e487b7160e01b600052601260045260246000fd5b600082613b7757613b77613b52565b500490565b60008219821115613b8f57613b8f61394f565b500190565b6020808252600990820152682737ba1037bbb732b960b91b604082015260600190565b60008351613bc98184602088016130c4565b835190830190613b0d8183602088016130c4565b600181815b80851115613c1a578163ffffffff04821115613c0057613c0061394f565b80851615613c0d57918102915b93841c9390800290613be2565b509250929050565b600082613c31575060016116ac565b81613c3e575060006116ac565b8160018114613c545760028114613c5e57613c8f565b60019150506116ac565b60ff841115613c6f57613c6f61394f565b6001841b915063ffffffff821115613c8957613c8961394f565b506116ac565b5060208310610133831016604e8410600b8410161715613cc6575081810a63ffffffff811115613cc157613cc161394f565b6116ac565b613cd08383613bdd565b8063ffffffff04821115613ce657613ce661394f565b029392505050565b6000611e1e60ff841663ffffffff8416613c22565b600063ffffffff80831681851681830481118215151615613d2657613d2661394f565b02949350505050565b600063ffffffff80841680613d4657613d46613b52565b92169190910492915050565b6001600160a01b03858116825284166020820152604081018390526080606082018190526000906127c1908301846130f0565b600060208284031215613d9757600080fd5b81516001600160e01b031981168114611e1e57600080fd5b600082613dbe57613dbe613b52565b50069056fea26469706673582212202eda5c21dd441b38ec7407992a3c9eb49cf3a39f5e15a0906696976699aefb1064736f6c634300080d0033",
    "sourcePath": "/Users/kmo/github/Game/contracts/facets/CharacterFacet.sol",
    "compiler": {
        "name": "solc",
        "version": "0.8.13+commit.abaa5c0e"
    },
    "functionHashes": {
        "approve(address,uint256)": "095ea7b3",
        "balanceOf(address)": "70a08231",
        "burnCharacter(uint256)": "8a499b71",
        "equipItem(uint256,uint256)": "262a8c3b",
        "explicitOwnershipOf(uint256)": "c23dc68f",
        "explicitOwnershipsOf(uint256[])": "5bbb2177",
        "gainExperience(uint256,uint32)": "ce49d15a",
        "gainTradeExperience(uint256,uint256,uint256)": "a7dc0d45",
        "getApproved(uint256)": "081812fc",
        "getCharacter(uint256)": "dabb0531",
        "getCharacterEquipment(uint256)": "54d12f45",
        "getCharactersAndEquipOfOwner(address)": "730c0809",
        "getCharactersOfOwner(address)": "09674691",
        "initialize(address)": "c4d66de8",
        "isApprovedForAll(address,address)": "e985e9c5",
        "mintCharacter(string)": "2b1d5039",
        "name()": "06fdde03",
        "ownerOf(uint256)": "6352211e",
        "safeTransferFrom(address,address,uint256)": "42842e0e",
        "safeTransferFrom(address,address,uint256,bytes)": "b88d4fde",
        "setApprovalForAll(address,bool)": "a22cb465",
        "symbol()": "95d89b41",
        "toNextLevel(uint32)": "e0fcf4bb",
        "tokenURI(uint256)": "c87b56dd",
        "tokensOfOwner(address)": "8462151c",
        "tokensOfOwnerIn(address,uint256,uint256)": "99a2557a",
        "totalSupply()": "18160ddd",
        "transferFrom(address,address,uint256)": "23b872dd"
    },
    "gasEstimates": {
        "creation": {
            "codeDepositCost": "3173000",
            "executionCost": "3507",
            "totalCost": "3176507"
        },
        "external": {
            "approve(address,uint256)": "infinite",
            "balanceOf(address)": "4769",
            "burnCharacter(uint256)": "infinite",
            "equipItem(uint256,uint256)": "infinite",
            "explicitOwnershipOf(uint256)": "infinite",
            "explicitOwnershipsOf(uint256[])": "infinite",
            "gainExperience(uint256,uint32)": "infinite",
            "gainTradeExperience(uint256,uint256,uint256)": "27022",
            "getApproved(uint256)": "9023",
            "getCharacter(uint256)": "infinite",
            "getCharacterEquipment(uint256)": "infinite",
            "getCharactersAndEquipOfOwner(address)": "infinite",
            "getCharactersOfOwner(address)": "infinite",
            "initialize(address)": "53217",
            "isApprovedForAll(address,address)": "infinite",
            "mintCharacter(string)": "infinite",
            "name()": "infinite",
            "ownerOf(uint256)": "infinite",
            "safeTransferFrom(address,address,uint256)": "infinite",
            "safeTransferFrom(address,address,uint256,bytes)": "infinite",
            "setApprovalForAll(address,bool)": "infinite",
            "symbol()": "infinite",
            "toNextLevel(uint32)": "infinite",
            "tokenURI(uint256)": "infinite",
            "tokensOfOwner(address)": "infinite",
            "tokensOfOwnerIn(address,uint256,uint256)": "infinite",
            "totalSupply()": "4455",
            "transferFrom(address,address,uint256)": "infinite"
        },
        "internal": {
            "_gainLevel(struct Character storage pointer)": "infinite",
            "_gainSkillLevel()": "infinite"
        }
    }
}